{"contracts/MeetingRegistry.sol":{"MeetingRegistry":{"abi":[{"anonymous":false,"inputs":[{"indexed":true,"internalType":"string","name":"meetingId","type":"string"},{"indexed":true,"internalType":"address","name":"host","type":"address"},{"indexed":false,"internalType":"string","name":"metadataCID","type":"string"},{"indexed":false,"internalType":"uint256","name":"timestamp","type":"uint256"}],"name":"MeetingCreated","type":"event"},{"anonymous":false,"inputs":[{"indexed":true,"internalType":"string","name":"meetingId","type":"string"},{"indexed":true,"internalType":"address","name":"host","type":"address"},{"indexed":false,"internalType":"uint256","name":"endTime","type":"uint256"},{"indexed":false,"internalType":"uint256","name":"participantCount","type":"uint256"},{"indexed":false,"internalType":"bytes32","name":"notesHash","type":"bytes32"}],"name":"MeetingEnded","type":"event"},{"anonymous":false,"inputs":[{"indexed":true,"internalType":"string","name":"meetingId","type":"string"},{"indexed":true,"internalType":"address","name":"host","type":"address"},{"indexed":false,"internalType":"uint256","name":"timestamp","type":"uint256"}],"name":"MeetingStored","type":"event"},{"anonymous":false,"inputs":[{"indexed":true,"internalType":"string","name":"meetingId","type":"string"},{"indexed":true,"internalType":"address","name":"sender","type":"address"},{"indexed":false,"internalType":"string","name":"contentCID","type":"string"},{"indexed":false,"internalType":"uint256","name":"timestamp","type":"uint256"}],"name":"MessageSent","type":"event"},{"anonymous":false,"inputs":[{"indexed":true,"internalType":"string","name":"meetingId","type":"string"},{"indexed":true,"internalType":"address","name":"participant","type":"address"},{"indexed":false,"internalType":"uint256","name":"timestamp","type":"uint256"}],"name":"ParticipantJoined","type":"event"},{"inputs":[{"internalType":"string","name":"meetingId","type":"string"},{"internalType":"string","name":"metadataCID","type":"string"}],"name":"createMeeting","outputs":[],"stateMutability":"nonpayable","type":"function"},{"inputs":[{"internalType":"string","name":"meetingId","type":"string"},{"internalType":"bytes32","name":"notesHash","type":"bytes32"}],"name":"endMeeting","outputs":[],"stateMutability":"nonpayable","type":"function"},{"inputs":[{"internalType":"string","name":"meetingId","type":"string"}],"name":"getMeeting","outputs":[{"components":[{"internalType":"string","name":"meetingId","type":"string"},{"internalType":"address","name":"host","type":"address"},{"internalType":"uint256","name":"startTime","type":"uint256"},{"internalType":"uint256","name":"endTime","type":"uint256"},{"internalType":"uint256","name":"participantCount","type":"uint256"},{"internalType":"bytes32","name":"notesHash","type":"bytes32"},{"internalType":"string","name":"metadataCID","type":"string"}],"internalType":"struct MeetingRegistry.Meeting","name":"","type":"tuple"}],"stateMutability":"view","type":"function"},{"inputs":[{"internalType":"string","name":"meetingId","type":"string"}],"name":"getMeetingParticipants","outputs":[{"internalType":"address[]","name":"","type":"address[]"}],"stateMutability":"view","type":"function"},{"inputs":[{"internalType":"address","name":"host","type":"address"}],"name":"getMeetingsByHost","outputs":[{"internalType":"string[]","name":"","type":"string[]"}],"stateMutability":"view","type":"function"},{"inputs":[{"internalType":"string","name":"meetingId","type":"string"}],"name":"joinMeeting","outputs":[],"stateMutability":"nonpayable","type":"function"},{"inputs":[{"internalType":"string","name":"meetingId","type":"string"},{"internalType":"string","name":"contentCID","type":"string"}],"name":"sendMessage","outputs":[],"stateMutability":"nonpayable","type":"function"},{"inputs":[{"internalType":"string","name":"meetingId","type":"string"},{"internalType":"uint256","name":"startTime","type":"uint256"},{"internalType":"uint256","name":"endTime","type":"uint256"},{"internalType":"uint256","name":"participantCount","type":"uint256"},{"internalType":"bytes32","name":"notesHash","type":"bytes32"}],"name":"storeMeeting","outputs":[],"stateMutability":"nonpayable","type":"function"}],"evm":{"bytecode":{"linkReferences":{},"object":"608060405234801561001057600080fd5b506115cb806100206000396000f3fe608060405234801561001057600080fd5b50600436106100885760003560e01c8063889e205b1161005b578063889e205b146100fe578063a3f27d1d14610111578063b18c843814610124578063e5f724431461014457600080fd5b80632f42e4801461008d5780633c318022146100b65780633e84279a146100d6578063467fba0f146100eb575b600080fd5b6100a061009b366004610f34565b610157565b6040516100ad9190610fbc565b60405180910390f35b6100c96100c4366004611039565b610339565b6040516100ad9190611069565b6100e96100e43660046110cb565b610428565b005b6100e96100f93660046110cb565b610700565b6100e961010c366004611137565b6107d3565b6100e961011f366004611199565b610ac5565b610137610132366004610f34565b610cf3565b6040516100ad91906111e5565b6100e9610152366004610f34565b610d70565b6101a36040518060e001604052806060815260200160006001600160a01b0316815260200160008152602001600081526020016000815260200160008019168152602001606081525090565b600083836040516101b5929190611232565b90815260200160405180910390206040518060e00160405290816000820180546101de90611242565b80601f016020809104026020016040519081016040528092919081815260200182805461020a90611242565b80156102575780601f1061022c57610100808354040283529160200191610257565b820191906000526020600020905b81548152906001019060200180831161023a57829003601f168201915b505050918352505060018201546001600160a01b03166020820152600282015460408201526003820154606082015260048201546080820152600582015460a082015260068201805460c0909201916102af90611242565b80601f01602080910402602001604051908101604052809291908181526020018280546102db90611242565b80156103285780601f106102fd57610100808354040283529160200191610328565b820191906000526020600020905b81548152906001019060200180831161030b57829003601f168201915b505050505081525050905092915050565b6001600160a01b0381166000908152600260209081526040808320805482518185028101850190935280835260609492939192909184015b8282101561041d57838290600052602060002001805461039090611242565b80601f01602080910402602001604051908101604052809291908181526020018280546103bc90611242565b80156104095780601f106103de57610100808354040283529160200191610409565b820191906000526020600020905b8154815290600101906020018083116103ec57829003601f168201915b505050505081526020019060010190610371565b505050509050919050565b8261044e5760405162461bcd60e51b81526004016104459061127c565b60405180910390fd5b60008484604051610460929190611232565b9081526020016040518091039020600201546000146104d15760405162461bcd60e51b815260206004820152602760248201527f4d656574696e6752656769737472793a206d656574696e6720616c72656164796044820152662065786973747360c81b6064820152608401610445565b6040518060e0016040528085858080601f016020809104026020016040519081016040528093929190818152602001838380828437600092018290525093855250503360208085019190915242604080860191909152606085018490526001608086015260a08501939093528251601f870182900482028101820190935285835260c09093019286915085908190840183828082843760009201829052509390945250506040519091506105889087908790611232565b908152604051908190036020019020815181906105a5908261132b565b5060208201516001820180546001600160a01b0319166001600160a01b0390921691909117905560408201516002820155606082015160038201556080820151600482015560a0820151600582015560c08201516006820190610608908261132b565b509050506001848460405161061e929190611232565b908152604080516020928190038301902080546001808201835560009283528483209091018054336001600160a01b0319909116811790915582526002845291812080549283018155815291909120016106798486836113eb565b50336000908152600360209081526040822080546001810182559083529120016106a48486836113eb565b5060405133906106b79086908690611232565b60405180910390207f5d94e16798d1576a08686758cd14327f6abc1fac8c3cb3abbbced843cadf94548484426040516106f2939291906114ac565b60405180910390a350505050565b60008484604051610712929190611232565b9081526020016040518091039020600201546000036107435760405162461bcd60e51b8152600401610445906114e5565b60008484604051610755929190611232565b9081526020016040518091039020600301546000146107865760405162461bcd60e51b81526004016104459061152c565b60405133906107989086908690611232565b60405180910390207fd5ee9752e991aa4c49f34d9ef11d00f6ce0ccf591e98dc9e2f30b530f2d980f98484426040516106f2939291906114ac565b846107f05760405162461bcd60e51b81526004016104459061127c565b60008686604051610802929190611232565b9081526020016040518091039020600201546000146108735760405162461bcd60e51b815260206004820152602760248201527f4d656574696e6752656769737472793a206d656574696e6720616c7265616479604482015266081cdd1bdc995960ca1b6064820152608401610445565b600084116108d75760405162461bcd60e51b815260206004820152602b60248201527f4d656574696e6752656769737472793a20737461727454696d65206d7573742060448201526a6265206e6f6e2d7a65726f60a81b6064820152608401610445565b838310156109395760405162461bcd60e51b815260206004820152602960248201527f4d656574696e6752656769737472793a20656e6454696d65206265666f726520604482015268737461727454696d6560b81b6064820152608401610445565b6040518060e0016040528087878080601f016020809104026020016040519081016040528093929190818152602001838380828437600092018290525093855250503360208085019190915260408085018a9052606085018990526080850188905260a085018790528051918201815283825260c0909401525090516109c29089908990611232565b908152604051908190036020019020815181906109df908261132b565b5060208201516001820180546001600160a01b0319166001600160a01b0390921691909117905560408201516002820155606082015160038201556080820151600482015560a0820151600582015560c08201516006820190610a42908261132b565b5050336000908152600260209081526040822080546001810182559083529120019050610a708688836113eb565b506040513390610a839088908890611232565b604051908190038120428252907ffdf018fa90555d28111ba8002245da5f26f7f539f2812f034bbf3cd575c052f69060200160405180910390a3505050505050565b60008383604051610ad7929190611232565b908152602001604051809103902060020154600003610b085760405162461bcd60e51b8152600401610445906114e5565b336001600160a01b031660008484604051610b24929190611232565b908152604051908190036020019020600101546001600160a01b031614610ba05760405162461bcd60e51b815260206004820152602a60248201527f4d656574696e6752656769737472793a206f6e6c7920686f73742063616e20656044820152696e64206d656574696e6760b01b6064820152608401610445565b60008383604051610bb2929190611232565b908152602001604051809103902060030154600014610c225760405162461bcd60e51b815260206004820152602660248201527f4d656574696e6752656769737472793a206d656574696e6720616c726561647960448201526508195b99195960d21b6064820152608401610445565b4260008484604051610c35929190611232565b9081526020016040518091039020600301819055508060008484604051610c5d929190611232565b908152604051908190036020018120600501919091553390610c829085908590611232565b60405180910390207f7b4715a0f956acdb6d952ab5b74bbd89b416cbc28086cf0f48f2d841ba7f92ac4260008787604051610cbe929190611232565b9081526040805160209281900383018120600401549381529182019290925290810185905260600160405180910390a3505050565b606060018383604051610d07929190611232565b9081526040805191829003602090810183208054808302850183019093528284529190830182828015610d6357602002820191906000526020600020905b81546001600160a01b03168152600190910190602001808311610d45575b5050505050905092915050565b60008282604051610d82929190611232565b908152602001604051809103902060020154600003610db35760405162461bcd60e51b8152600401610445906114e5565b60008282604051610dc5929190611232565b908152602001604051809103902060030154600014610df65760405162461bcd60e51b81526004016104459061152c565b60008282604051610e08929190611232565b9081526040519081900360200190206004018054906000610e288361156e565b919050555060018282604051610e3f929190611232565b908152604080516020928190038301902080546001808201835560009283528483209091018054336001600160a01b031990911681179091558252600384529181208054928301815581529190912001610e9a8284836113eb565b506040513390610ead9084908490611232565b604051908190038120428252907f32aad72eb80a36979bc5485d029eb9532fbb61b31487e55e623f7b8b04dd5b059060200160405180910390a35050565b60008083601f840112610efd57600080fd5b50813567ffffffffffffffff811115610f1557600080fd5b602083019150836020828501011115610f2d57600080fd5b9250929050565b60008060208385031215610f4757600080fd5b823567ffffffffffffffff811115610f5e57600080fd5b610f6a85828601610eeb565b90969095509350505050565b6000815180845260005b81811015610f9c57602081850181015186830182015201610f80565b506000602082860101526020601f19601f83011685010191505092915050565b602081526000825160e06020840152610fd9610100840182610f76565b905060018060a01b0360208501511660408401526040840151606084015260608401516080840152608084015160a084015260a084015160c084015260c0840151601f198483030160e08501526110308282610f76565b95945050505050565b60006020828403121561104b57600080fd5b81356001600160a01b038116811461106257600080fd5b9392505050565b6000602080830181845280855180835260408601915060408160051b870101925083870160005b828110156110be57603f198886030184526110ac858351610f76565b94509285019290850190600101611090565b5092979650505050505050565b600080600080604085870312156110e157600080fd5b843567ffffffffffffffff808211156110f957600080fd5b61110588838901610eeb565b9096509450602087013591508082111561111e57600080fd5b5061112b87828801610eeb565b95989497509550505050565b60008060008060008060a0878903121561115057600080fd5b863567ffffffffffffffff81111561116757600080fd5b61117389828a01610eeb565b909a90995060208901359860408101359850606081013597506080013595509350505050565b6000806000604084860312156111ae57600080fd5b833567ffffffffffffffff8111156111c557600080fd5b6111d186828701610eeb565b909790965060209590950135949350505050565b6020808252825182820181905260009190848201906040850190845b818110156112265783516001600160a01b031683529284019291840191600101611201565b50909695505050505050565b8183823760009101908152919050565b600181811c9082168061125657607f821691505b60208210810361127657634e487b7160e01b600052602260045260246000fd5b50919050565b6020808252602a908201527f4d656574696e6752656769737472793a206d656574696e6749642063616e6e6f6040820152697420626520656d70747960b01b606082015260800190565b634e487b7160e01b600052604160045260246000fd5b601f82111561132657600081815260208120601f850160051c810160208610156113035750805b601f850160051c820191505b818110156113225782815560010161130f565b5050505b505050565b815167ffffffffffffffff811115611345576113456112c6565b611359816113538454611242565b846112dc565b602080601f83116001811461138e57600084156113765750858301515b600019600386901b1c1916600185901b178555611322565b600085815260208120601f198616915b828110156113bd5788860151825594840194600190910190840161139e565b50858210156113db5787850151600019600388901b60f8161c191681555b5050505050600190811b01905550565b67ffffffffffffffff831115611403576114036112c6565b611417836114118354611242565b836112dc565b6000601f84116001811461144b57600085156114335750838201355b600019600387901b1c1916600186901b1783556114a5565b600083815260209020601f19861690835b8281101561147c578685013582556020948501946001909201910161145c565b50868210156114995760001960f88860031b161c19848701351681555b505060018560011b0183555b5050505050565b604081528260408201528284606083013760006060848301015260006060601f19601f8601168301019050826020830152949350505050565b60208082526027908201527f4d656574696e6752656769737472793a206d656574696e6720646f6573206e6f6040820152661d08195e1a5cdd60ca1b606082015260800190565b60208082526022908201527f4d656574696e6752656769737472793a206d656574696e672068617320656e64604082015261195960f21b606082015260800190565b60006001820161158e57634e487b7160e01b600052601160045260246000fd5b506001019056fea264697066735822122095528d971b9d978eef667a812363c315f66364928deceb8133c8e534b50272e464736f6c63430008140033","opcodes":"PUSH1 0x80 PUSH1 0x40 MSTORE CALLVALUE DUP1 ISZERO PUSH2 0x10 JUMPI PUSH1 0x0 DUP1 REVERT JUMPDEST POP PUSH2 0x15CB DUP1 PUSH2 0x20 PUSH1 0x0 CODECOPY PUSH1 0x0 RETURN INVALID PUSH1 0x80 PUSH1 0x40 MSTORE CALLVALUE DUP1 ISZERO PUSH2 0x10 JUMPI PUSH1 0x0 DUP1 REVERT JUMPDEST POP PUSH1 0x4 CALLDATASIZE LT PUSH2 0x88 JUMPI PUSH1 0x0 CALLDATALOAD PUSH1 0xE0 SHR DUP1 PUSH4 0x889E205B GT PUSH2 0x5B JUMPI DUP1 PUSH4 0x889E205B EQ PUSH2 0xFE JUMPI DUP1 PUSH4 0xA3F27D1D EQ PUSH2 0x111 JUMPI DUP1 PUSH4 0xB18C8438 EQ PUSH2 0x124 JUMPI DUP1 PUSH4 0xE5F72443 EQ PUSH2 0x144 JUMPI PUSH1 0x0 DUP1 REVERT JUMPDEST DUP1 PUSH4 0x2F42E480 EQ PUSH2 0x8D JUMPI DUP1 PUSH4 0x3C318022 EQ PUSH2 0xB6 JUMPI DUP1 PUSH4 0x3E84279A EQ PUSH2 0xD6 JUMPI DUP1 PUSH4 0x467FBA0F EQ PUSH2 0xEB JUMPI JUMPDEST PUSH1 0x0 DUP1 REVERT JUMPDEST PUSH2 0xA0 PUSH2 0x9B CALLDATASIZE PUSH1 0x4 PUSH2 0xF34 JUMP JUMPDEST PUSH2 0x157 JUMP JUMPDEST PUSH1 0x40 MLOAD PUSH2 0xAD SWAP2 SWAP1 PUSH2 0xFBC JUMP JUMPDEST PUSH1 0x40 MLOAD DUP1 SWAP2 SUB SWAP1 RETURN JUMPDEST PUSH2 0xC9 PUSH2 0xC4 CALLDATASIZE PUSH1 0x4 PUSH2 0x1039 JUMP JUMPDEST PUSH2 0x339 JUMP JUMPDEST PUSH1 0x40 MLOAD PUSH2 0xAD SWAP2 SWAP1 PUSH2 0x1069 JUMP JUMPDEST PUSH2 0xE9 PUSH2 0xE4 CALLDATASIZE PUSH1 0x4 PUSH2 0x10CB JUMP JUMPDEST PUSH2 0x428 JUMP JUMPDEST STOP JUMPDEST PUSH2 0xE9 PUSH2 0xF9 CALLDATASIZE PUSH1 0x4 PUSH2 0x10CB JUMP JUMPDEST PUSH2 0x700 JUMP JUMPDEST PUSH2 0xE9 PUSH2 0x10C CALLDATASIZE PUSH1 0x4 PUSH2 0x1137 JUMP JUMPDEST PUSH2 0x7D3 JUMP JUMPDEST PUSH2 0xE9 PUSH2 0x11F CALLDATASIZE PUSH1 0x4 PUSH2 0x1199 JUMP JUMPDEST PUSH2 0xAC5 JUMP JUMPDEST PUSH2 0x137 PUSH2 0x132 CALLDATASIZE PUSH1 0x4 PUSH2 0xF34 JUMP JUMPDEST PUSH2 0xCF3 JUMP JUMPDEST PUSH1 0x40 MLOAD PUSH2 0xAD SWAP2 SWAP1 PUSH2 0x11E5 JUMP JUMPDEST PUSH2 0xE9 PUSH2 0x152 CALLDATASIZE PUSH1 0x4 PUSH2 0xF34 JUMP JUMPDEST PUSH2 0xD70 JUMP JUMPDEST PUSH2 0x1A3 PUSH1 0x40 MLOAD DUP1 PUSH1 0xE0 ADD PUSH1 0x40 MSTORE DUP1 PUSH1 0x60 DUP2 MSTORE PUSH1 0x20 ADD PUSH1 0x0 PUSH1 0x1 PUSH1 0x1 PUSH1 0xA0 SHL SUB AND DUP2 MSTORE PUSH1 0x20 ADD PUSH1 0x0 DUP2 MSTORE PUSH1 0x20 ADD PUSH1 0x0 DUP2 MSTORE PUSH1 0x20 ADD PUSH1 0x0 DUP2 MSTORE PUSH1 0x20 ADD PUSH1 0x0 DUP1 NOT AND DUP2 MSTORE PUSH1 0x20 ADD PUSH1 0x60 DUP2 MSTORE POP SWAP1 JUMP JUMPDEST PUSH1 0x0 DUP4 DUP4 PUSH1 0x40 MLOAD PUSH2 0x1B5 SWAP3 SWAP2 SWAP1 PUSH2 0x1232 JUMP JUMPDEST SWAP1 DUP2 MSTORE PUSH1 0x20 ADD PUSH1 0x40 MLOAD DUP1 SWAP2 SUB SWAP1 KECCAK256 PUSH1 0x40 MLOAD DUP1 PUSH1 0xE0 ADD PUSH1 0x40 MSTORE SWAP1 DUP2 PUSH1 0x0 DUP3 ADD DUP1 SLOAD PUSH2 0x1DE SWAP1 PUSH2 0x1242 JUMP JUMPDEST DUP1 PUSH1 0x1F ADD PUSH1 0x20 DUP1 SWAP2 DIV MUL PUSH1 0x20 ADD PUSH1 0x40 MLOAD SWAP1 DUP2 ADD PUSH1 0x40 MSTORE DUP1 SWAP3 SWAP2 SWAP1 DUP2 DUP2 MSTORE PUSH1 0x20 ADD DUP3 DUP1 SLOAD PUSH2 0x20A SWAP1 PUSH2 0x1242 JUMP JUMPDEST DUP1 ISZERO PUSH2 0x257 JUMPI DUP1 PUSH1 0x1F LT PUSH2 0x22C JUMPI PUSH2 0x100 DUP1 DUP4 SLOAD DIV MUL DUP4 MSTORE SWAP2 PUSH1 0x20 ADD SWAP2 PUSH2 0x257 JUMP JUMPDEST DUP3 ADD SWAP2 SWAP1 PUSH1 0x0 MSTORE PUSH1 0x20 PUSH1 0x0 KECCAK256 SWAP1 JUMPDEST DUP2 SLOAD DUP2 MSTORE SWAP1 PUSH1 0x1 ADD SWAP1 PUSH1 0x20 ADD DUP1 DUP4 GT PUSH2 0x23A JUMPI DUP3 SWAP1 SUB PUSH1 0x1F AND DUP3 ADD SWAP2 JUMPDEST POP POP POP SWAP2 DUP4 MSTORE POP POP PUSH1 0x1 DUP3 ADD SLOAD PUSH1 0x1 PUSH1 0x1 PUSH1 0xA0 SHL SUB AND PUSH1 0x20 DUP3 ADD MSTORE PUSH1 0x2 DUP3 ADD SLOAD PUSH1 0x40 DUP3 ADD MSTORE PUSH1 0x3 DUP3 ADD SLOAD PUSH1 0x60 DUP3 ADD MSTORE PUSH1 0x4 DUP3 ADD SLOAD PUSH1 0x80 DUP3 ADD MSTORE PUSH1 0x5 DUP3 ADD SLOAD PUSH1 0xA0 DUP3 ADD MSTORE PUSH1 0x6 DUP3 ADD DUP1 SLOAD PUSH1 0xC0 SWAP1 SWAP3 ADD SWAP2 PUSH2 0x2AF SWAP1 PUSH2 0x1242 JUMP JUMPDEST DUP1 PUSH1 0x1F ADD PUSH1 0x20 DUP1 SWAP2 DIV MUL PUSH1 0x20 ADD PUSH1 0x40 MLOAD SWAP1 DUP2 ADD PUSH1 0x40 MSTORE DUP1 SWAP3 SWAP2 SWAP1 DUP2 DUP2 MSTORE PUSH1 0x20 ADD DUP3 DUP1 SLOAD PUSH2 0x2DB SWAP1 PUSH2 0x1242 JUMP JUMPDEST DUP1 ISZERO PUSH2 0x328 JUMPI DUP1 PUSH1 0x1F LT PUSH2 0x2FD JUMPI PUSH2 0x100 DUP1 DUP4 SLOAD DIV MUL DUP4 MSTORE SWAP2 PUSH1 0x20 ADD SWAP2 PUSH2 0x328 JUMP JUMPDEST DUP3 ADD SWAP2 SWAP1 PUSH1 0x0 MSTORE PUSH1 0x20 PUSH1 0x0 KECCAK256 SWAP1 JUMPDEST DUP2 SLOAD DUP2 MSTORE SWAP1 PUSH1 0x1 ADD SWAP1 PUSH1 0x20 ADD DUP1 DUP4 GT PUSH2 0x30B JUMPI DUP3 SWAP1 SUB PUSH1 0x1F AND DUP3 ADD SWAP2 JUMPDEST POP POP POP POP POP DUP2 MSTORE POP POP SWAP1 POP SWAP3 SWAP2 POP POP JUMP JUMPDEST PUSH1 0x1 PUSH1 0x1 PUSH1 0xA0 SHL SUB DUP2 AND PUSH1 0x0 SWAP1 DUP2 MSTORE PUSH1 0x2 PUSH1 0x20 SWAP1 DUP2 MSTORE PUSH1 0x40 DUP1 DUP4 KECCAK256 DUP1 SLOAD DUP3 MLOAD DUP2 DUP6 MUL DUP2 ADD DUP6 ADD SWAP1 SWAP4 MSTORE DUP1 DUP4 MSTORE PUSH1 0x60 SWAP5 SWAP3 SWAP4 SWAP2 SWAP3 SWAP1 SWAP2 DUP5 ADD JUMPDEST DUP3 DUP3 LT ISZERO PUSH2 0x41D JUMPI DUP4 DUP3 SWAP1 PUSH1 0x0 MSTORE PUSH1 0x20 PUSH1 0x0 KECCAK256 ADD DUP1 SLOAD PUSH2 0x390 SWAP1 PUSH2 0x1242 JUMP JUMPDEST DUP1 PUSH1 0x1F ADD PUSH1 0x20 DUP1 SWAP2 DIV MUL PUSH1 0x20 ADD PUSH1 0x40 MLOAD SWAP1 DUP2 ADD PUSH1 0x40 MSTORE DUP1 SWAP3 SWAP2 SWAP1 DUP2 DUP2 MSTORE PUSH1 0x20 ADD DUP3 DUP1 SLOAD PUSH2 0x3BC SWAP1 PUSH2 0x1242 JUMP JUMPDEST DUP1 ISZERO PUSH2 0x409 JUMPI DUP1 PUSH1 0x1F LT PUSH2 0x3DE JUMPI PUSH2 0x100 DUP1 DUP4 SLOAD DIV MUL DUP4 MSTORE SWAP2 PUSH1 0x20 ADD SWAP2 PUSH2 0x409 JUMP JUMPDEST DUP3 ADD SWAP2 SWAP1 PUSH1 0x0 MSTORE PUSH1 0x20 PUSH1 0x0 KECCAK256 SWAP1 JUMPDEST DUP2 SLOAD DUP2 MSTORE SWAP1 PUSH1 0x1 ADD SWAP1 PUSH1 0x20 ADD DUP1 DUP4 GT PUSH2 0x3EC JUMPI DUP3 SWAP1 SUB PUSH1 0x1F AND DUP3 ADD SWAP2 JUMPDEST POP POP POP POP POP DUP2 MSTORE PUSH1 0x20 ADD SWAP1 PUSH1 0x1 ADD SWAP1 PUSH2 0x371 JUMP JUMPDEST POP POP POP POP SWAP1 POP SWAP2 SWAP1 POP JUMP JUMPDEST DUP3 PUSH2 0x44E JUMPI PUSH1 0x40 MLOAD PUSH3 0x461BCD PUSH1 0xE5 SHL DUP2 MSTORE PUSH1 0x4 ADD PUSH2 0x445 SWAP1 PUSH2 0x127C JUMP JUMPDEST PUSH1 0x40 MLOAD DUP1 SWAP2 SUB SWAP1 REVERT JUMPDEST PUSH1 0x0 DUP5 DUP5 PUSH1 0x40 MLOAD PUSH2 0x460 SWAP3 SWAP2 SWAP1 PUSH2 0x1232 JUMP JUMPDEST SWAP1 DUP2 MSTORE PUSH1 0x20 ADD PUSH1 0x40 MLOAD DUP1 SWAP2 SUB SWAP1 KECCAK256 PUSH1 0x2 ADD SLOAD PUSH1 0x0 EQ PUSH2 0x4D1 JUMPI PUSH1 0x40 MLOAD PUSH3 0x461BCD PUSH1 0xE5 SHL DUP2 MSTORE PUSH1 0x20 PUSH1 0x4 DUP3 ADD MSTORE PUSH1 0x27 PUSH1 0x24 DUP3 ADD MSTORE PUSH32 0x4D656574696E6752656769737472793A206D656574696E6720616C7265616479 PUSH1 0x44 DUP3 ADD MSTORE PUSH7 0x20657869737473 PUSH1 0xC8 SHL PUSH1 0x64 DUP3 ADD MSTORE PUSH1 0x84 ADD PUSH2 0x445 JUMP JUMPDEST PUSH1 0x40 MLOAD DUP1 PUSH1 0xE0 ADD PUSH1 0x40 MSTORE DUP1 DUP6 DUP6 DUP1 DUP1 PUSH1 0x1F ADD PUSH1 0x20 DUP1 SWAP2 DIV MUL PUSH1 0x20 ADD PUSH1 0x40 MLOAD SWAP1 DUP2 ADD PUSH1 0x40 MSTORE DUP1 SWAP4 SWAP3 SWAP2 SWAP1 DUP2 DUP2 MSTORE PUSH1 0x20 ADD DUP4 DUP4 DUP1 DUP3 DUP5 CALLDATACOPY PUSH1 0x0 SWAP3 ADD DUP3 SWAP1 MSTORE POP SWAP4 DUP6 MSTORE POP POP CALLER PUSH1 0x20 DUP1 DUP6 ADD SWAP2 SWAP1 SWAP2 MSTORE TIMESTAMP PUSH1 0x40 DUP1 DUP7 ADD SWAP2 SWAP1 SWAP2 MSTORE PUSH1 0x60 DUP6 ADD DUP5 SWAP1 MSTORE PUSH1 0x1 PUSH1 0x80 DUP7 ADD MSTORE PUSH1 0xA0 DUP6 ADD SWAP4 SWAP1 SWAP4 MSTORE DUP3 MLOAD PUSH1 0x1F DUP8 ADD DUP3 SWAP1 DIV DUP3 MUL DUP2 ADD DUP3 ADD SWAP1 SWAP4 MSTORE DUP6 DUP4 MSTORE PUSH1 0xC0 SWAP1 SWAP4 ADD SWAP3 DUP7 SWAP2 POP DUP6 SWAP1 DUP2 SWAP1 DUP5 ADD DUP4 DUP3 DUP1 DUP3 DUP5 CALLDATACOPY PUSH1 0x0 SWAP3 ADD DUP3 SWAP1 MSTORE POP SWAP4 SWAP1 SWAP5 MSTORE POP POP PUSH1 0x40 MLOAD SWAP1 SWAP2 POP PUSH2 0x588 SWAP1 DUP8 SWAP1 DUP8 SWAP1 PUSH2 0x1232 JUMP JUMPDEST SWAP1 DUP2 MSTORE PUSH1 0x40 MLOAD SWAP1 DUP2 SWAP1 SUB PUSH1 0x20 ADD SWAP1 KECCAK256 DUP2 MLOAD DUP2 SWAP1 PUSH2 0x5A5 SWAP1 DUP3 PUSH2 0x132B JUMP JUMPDEST POP PUSH1 0x20 DUP3 ADD MLOAD PUSH1 0x1 DUP3 ADD DUP1 SLOAD PUSH1 0x1 PUSH1 0x1 PUSH1 0xA0 SHL SUB NOT AND PUSH1 0x1 PUSH1 0x1 PUSH1 0xA0 SHL SUB SWAP1 SWAP3 AND SWAP2 SWAP1 SWAP2 OR SWAP1 SSTORE PUSH1 0x40 DUP3 ADD MLOAD PUSH1 0x2 DUP3 ADD SSTORE PUSH1 0x60 DUP3 ADD MLOAD PUSH1 0x3 DUP3 ADD SSTORE PUSH1 0x80 DUP3 ADD MLOAD PUSH1 0x4 DUP3 ADD SSTORE PUSH1 0xA0 DUP3 ADD MLOAD PUSH1 0x5 DUP3 ADD SSTORE PUSH1 0xC0 DUP3 ADD MLOAD PUSH1 0x6 DUP3 ADD SWAP1 PUSH2 0x608 SWAP1 DUP3 PUSH2 0x132B JUMP JUMPDEST POP SWAP1 POP POP PUSH1 0x1 DUP5 DUP5 PUSH1 0x40 MLOAD PUSH2 0x61E SWAP3 SWAP2 SWAP1 PUSH2 0x1232 JUMP JUMPDEST SWAP1 DUP2 MSTORE PUSH1 0x40 DUP1 MLOAD PUSH1 0x20 SWAP3 DUP2 SWAP1 SUB DUP4 ADD SWAP1 KECCAK256 DUP1 SLOAD PUSH1 0x1 DUP1 DUP3 ADD DUP4 SSTORE PUSH1 0x0 SWAP3 DUP4 MSTORE DUP5 DUP4 KECCAK256 SWAP1 SWAP2 ADD DUP1 SLOAD CALLER PUSH1 0x1 PUSH1 0x1 PUSH1 0xA0 SHL SUB NOT SWAP1 SWAP2 AND DUP2 OR SWAP1 SWAP2 SSTORE DUP3 MSTORE PUSH1 0x2 DUP5 MSTORE SWAP2 DUP2 KECCAK256 DUP1 SLOAD SWAP3 DUP4 ADD DUP2 SSTORE DUP2 MSTORE SWAP2 SWAP1 SWAP2 KECCAK256 ADD PUSH2 0x679 DUP5 DUP7 DUP4 PUSH2 0x13EB JUMP JUMPDEST POP CALLER PUSH1 0x0 SWAP1 DUP2 MSTORE PUSH1 0x3 PUSH1 0x20 SWAP1 DUP2 MSTORE PUSH1 0x40 DUP3 KECCAK256 DUP1 SLOAD PUSH1 0x1 DUP2 ADD DUP3 SSTORE SWAP1 DUP4 MSTORE SWAP2 KECCAK256 ADD PUSH2 0x6A4 DUP5 DUP7 DUP4 PUSH2 0x13EB JUMP JUMPDEST POP PUSH1 0x40 MLOAD CALLER SWAP1 PUSH2 0x6B7 SWAP1 DUP7 SWAP1 DUP7 SWAP1 PUSH2 0x1232 JUMP JUMPDEST PUSH1 0x40 MLOAD DUP1 SWAP2 SUB SWAP1 KECCAK256 PUSH32 0x5D94E16798D1576A08686758CD14327F6ABC1FAC8C3CB3ABBBCED843CADF9454 DUP5 DUP5 TIMESTAMP PUSH1 0x40 MLOAD PUSH2 0x6F2 SWAP4 SWAP3 SWAP2 SWAP1 PUSH2 0x14AC JUMP JUMPDEST PUSH1 0x40 MLOAD DUP1 SWAP2 SUB SWAP1 LOG3 POP POP POP POP JUMP JUMPDEST PUSH1 0x0 DUP5 DUP5 PUSH1 0x40 MLOAD PUSH2 0x712 SWAP3 SWAP2 SWAP1 PUSH2 0x1232 JUMP JUMPDEST SWAP1 DUP2 MSTORE PUSH1 0x20 ADD PUSH1 0x40 MLOAD DUP1 SWAP2 SUB SWAP1 KECCAK256 PUSH1 0x2 ADD SLOAD PUSH1 0x0 SUB PUSH2 0x743 JUMPI PUSH1 0x40 MLOAD PUSH3 0x461BCD PUSH1 0xE5 SHL DUP2 MSTORE PUSH1 0x4 ADD PUSH2 0x445 SWAP1 PUSH2 0x14E5 JUMP JUMPDEST PUSH1 0x0 DUP5 DUP5 PUSH1 0x40 MLOAD PUSH2 0x755 SWAP3 SWAP2 SWAP1 PUSH2 0x1232 JUMP JUMPDEST SWAP1 DUP2 MSTORE PUSH1 0x20 ADD PUSH1 0x40 MLOAD DUP1 SWAP2 SUB SWAP1 KECCAK256 PUSH1 0x3 ADD SLOAD PUSH1 0x0 EQ PUSH2 0x786 JUMPI PUSH1 0x40 MLOAD PUSH3 0x461BCD PUSH1 0xE5 SHL DUP2 MSTORE PUSH1 0x4 ADD PUSH2 0x445 SWAP1 PUSH2 0x152C JUMP JUMPDEST PUSH1 0x40 MLOAD CALLER SWAP1 PUSH2 0x798 SWAP1 DUP7 SWAP1 DUP7 SWAP1 PUSH2 0x1232 JUMP JUMPDEST PUSH1 0x40 MLOAD DUP1 SWAP2 SUB SWAP1 KECCAK256 PUSH32 0xD5EE9752E991AA4C49F34D9EF11D00F6CE0CCF591E98DC9E2F30B530F2D980F9 DUP5 DUP5 TIMESTAMP PUSH1 0x40 MLOAD PUSH2 0x6F2 SWAP4 SWAP3 SWAP2 SWAP1 PUSH2 0x14AC JUMP JUMPDEST DUP5 PUSH2 0x7F0 JUMPI PUSH1 0x40 MLOAD PUSH3 0x461BCD PUSH1 0xE5 SHL DUP2 MSTORE PUSH1 0x4 ADD PUSH2 0x445 SWAP1 PUSH2 0x127C JUMP JUMPDEST PUSH1 0x0 DUP7 DUP7 PUSH1 0x40 MLOAD PUSH2 0x802 SWAP3 SWAP2 SWAP1 PUSH2 0x1232 JUMP JUMPDEST SWAP1 DUP2 MSTORE PUSH1 0x20 ADD PUSH1 0x40 MLOAD DUP1 SWAP2 SUB SWAP1 KECCAK256 PUSH1 0x2 ADD SLOAD PUSH1 0x0 EQ PUSH2 0x873 JUMPI PUSH1 0x40 MLOAD PUSH3 0x461BCD PUSH1 0xE5 SHL DUP2 MSTORE PUSH1 0x20 PUSH1 0x4 DUP3 ADD MSTORE PUSH1 0x27 PUSH1 0x24 DUP3 ADD MSTORE PUSH32 0x4D656574696E6752656769737472793A206D656574696E6720616C7265616479 PUSH1 0x44 DUP3 ADD MSTORE PUSH7 0x81CDD1BDC9959 PUSH1 0xCA SHL PUSH1 0x64 DUP3 ADD MSTORE PUSH1 0x84 ADD PUSH2 0x445 JUMP JUMPDEST PUSH1 0x0 DUP5 GT PUSH2 0x8D7 JUMPI PUSH1 0x40 MLOAD PUSH3 0x461BCD PUSH1 0xE5 SHL DUP2 MSTORE PUSH1 0x20 PUSH1 0x4 DUP3 ADD MSTORE PUSH1 0x2B PUSH1 0x24 DUP3 ADD MSTORE PUSH32 0x4D656574696E6752656769737472793A20737461727454696D65206D75737420 PUSH1 0x44 DUP3 ADD MSTORE PUSH11 0x6265206E6F6E2D7A65726F PUSH1 0xA8 SHL PUSH1 0x64 DUP3 ADD MSTORE PUSH1 0x84 ADD PUSH2 0x445 JUMP JUMPDEST DUP4 DUP4 LT ISZERO PUSH2 0x939 JUMPI PUSH1 0x40 MLOAD PUSH3 0x461BCD PUSH1 0xE5 SHL DUP2 MSTORE PUSH1 0x20 PUSH1 0x4 DUP3 ADD MSTORE PUSH1 0x29 PUSH1 0x24 DUP3 ADD MSTORE PUSH32 0x4D656574696E6752656769737472793A20656E6454696D65206265666F726520 PUSH1 0x44 DUP3 ADD MSTORE PUSH9 0x737461727454696D65 PUSH1 0xB8 SHL PUSH1 0x64 DUP3 ADD MSTORE PUSH1 0x84 ADD PUSH2 0x445 JUMP JUMPDEST PUSH1 0x40 MLOAD DUP1 PUSH1 0xE0 ADD PUSH1 0x40 MSTORE DUP1 DUP8 DUP8 DUP1 DUP1 PUSH1 0x1F ADD PUSH1 0x20 DUP1 SWAP2 DIV MUL PUSH1 0x20 ADD PUSH1 0x40 MLOAD SWAP1 DUP2 ADD PUSH1 0x40 MSTORE DUP1 SWAP4 SWAP3 SWAP2 SWAP1 DUP2 DUP2 MSTORE PUSH1 0x20 ADD DUP4 DUP4 DUP1 DUP3 DUP5 CALLDATACOPY PUSH1 0x0 SWAP3 ADD DUP3 SWAP1 MSTORE POP SWAP4 DUP6 MSTORE POP POP CALLER PUSH1 0x20 DUP1 DUP6 ADD SWAP2 SWAP1 SWAP2 MSTORE PUSH1 0x40 DUP1 DUP6 ADD DUP11 SWAP1 MSTORE PUSH1 0x60 DUP6 ADD DUP10 SWAP1 MSTORE PUSH1 0x80 DUP6 ADD DUP9 SWAP1 MSTORE PUSH1 0xA0 DUP6 ADD DUP8 SWAP1 MSTORE DUP1 MLOAD SWAP2 DUP3 ADD DUP2 MSTORE DUP4 DUP3 MSTORE PUSH1 0xC0 SWAP1 SWAP5 ADD MSTORE POP SWAP1 MLOAD PUSH2 0x9C2 SWAP1 DUP10 SWAP1 DUP10 SWAP1 PUSH2 0x1232 JUMP JUMPDEST SWAP1 DUP2 MSTORE PUSH1 0x40 MLOAD SWAP1 DUP2 SWAP1 SUB PUSH1 0x20 ADD SWAP1 KECCAK256 DUP2 MLOAD DUP2 SWAP1 PUSH2 0x9DF SWAP1 DUP3 PUSH2 0x132B JUMP JUMPDEST POP PUSH1 0x20 DUP3 ADD MLOAD PUSH1 0x1 DUP3 ADD DUP1 SLOAD PUSH1 0x1 PUSH1 0x1 PUSH1 0xA0 SHL SUB NOT AND PUSH1 0x1 PUSH1 0x1 PUSH1 0xA0 SHL SUB SWAP1 SWAP3 AND SWAP2 SWAP1 SWAP2 OR SWAP1 SSTORE PUSH1 0x40 DUP3 ADD MLOAD PUSH1 0x2 DUP3 ADD SSTORE PUSH1 0x60 DUP3 ADD MLOAD PUSH1 0x3 DUP3 ADD SSTORE PUSH1 0x80 DUP3 ADD MLOAD PUSH1 0x4 DUP3 ADD SSTORE PUSH1 0xA0 DUP3 ADD MLOAD PUSH1 0x5 DUP3 ADD SSTORE PUSH1 0xC0 DUP3 ADD MLOAD PUSH1 0x6 DUP3 ADD SWAP1 PUSH2 0xA42 SWAP1 DUP3 PUSH2 0x132B JUMP JUMPDEST POP POP CALLER PUSH1 0x0 SWAP1 DUP2 MSTORE PUSH1 0x2 PUSH1 0x20 SWAP1 DUP2 MSTORE PUSH1 0x40 DUP3 KECCAK256 DUP1 SLOAD PUSH1 0x1 DUP2 ADD DUP3 SSTORE SWAP1 DUP4 MSTORE SWAP2 KECCAK256 ADD SWAP1 POP PUSH2 0xA70 DUP7 DUP9 DUP4 PUSH2 0x13EB JUMP JUMPDEST POP PUSH1 0x40 MLOAD CALLER SWAP1 PUSH2 0xA83 SWAP1 DUP9 SWAP1 DUP9 SWAP1 PUSH2 0x1232 JUMP JUMPDEST PUSH1 0x40 MLOAD SWAP1 DUP2 SWAP1 SUB DUP2 KECCAK256 TIMESTAMP DUP3 MSTORE SWAP1 PUSH32 0xFDF018FA90555D28111BA8002245DA5F26F7F539F2812F034BBF3CD575C052F6 SWAP1 PUSH1 0x20 ADD PUSH1 0x40 MLOAD DUP1 SWAP2 SUB SWAP1 LOG3 POP POP POP POP POP POP JUMP JUMPDEST PUSH1 0x0 DUP4 DUP4 PUSH1 0x40 MLOAD PUSH2 0xAD7 SWAP3 SWAP2 SWAP1 PUSH2 0x1232 JUMP JUMPDEST SWAP1 DUP2 MSTORE PUSH1 0x20 ADD PUSH1 0x40 MLOAD DUP1 SWAP2 SUB SWAP1 KECCAK256 PUSH1 0x2 ADD SLOAD PUSH1 0x0 SUB PUSH2 0xB08 JUMPI PUSH1 0x40 MLOAD PUSH3 0x461BCD PUSH1 0xE5 SHL DUP2 MSTORE PUSH1 0x4 ADD PUSH2 0x445 SWAP1 PUSH2 0x14E5 JUMP JUMPDEST CALLER PUSH1 0x1 PUSH1 0x1 PUSH1 0xA0 SHL SUB AND PUSH1 0x0 DUP5 DUP5 PUSH1 0x40 MLOAD PUSH2 0xB24 SWAP3 SWAP2 SWAP1 PUSH2 0x1232 JUMP JUMPDEST SWAP1 DUP2 MSTORE PUSH1 0x40 MLOAD SWAP1 DUP2 SWAP1 SUB PUSH1 0x20 ADD SWAP1 KECCAK256 PUSH1 0x1 ADD SLOAD PUSH1 0x1 PUSH1 0x1 PUSH1 0xA0 SHL SUB AND EQ PUSH2 0xBA0 JUMPI PUSH1 0x40 MLOAD PUSH3 0x461BCD PUSH1 0xE5 SHL DUP2 MSTORE PUSH1 0x20 PUSH1 0x4 DUP3 ADD MSTORE PUSH1 0x2A PUSH1 0x24 DUP3 ADD MSTORE PUSH32 0x4D656574696E6752656769737472793A206F6E6C7920686F73742063616E2065 PUSH1 0x44 DUP3 ADD MSTORE PUSH10 0x6E64206D656574696E67 PUSH1 0xB0 SHL PUSH1 0x64 DUP3 ADD MSTORE PUSH1 0x84 ADD PUSH2 0x445 JUMP JUMPDEST PUSH1 0x0 DUP4 DUP4 PUSH1 0x40 MLOAD PUSH2 0xBB2 SWAP3 SWAP2 SWAP1 PUSH2 0x1232 JUMP JUMPDEST SWAP1 DUP2 MSTORE PUSH1 0x20 ADD PUSH1 0x40 MLOAD DUP1 SWAP2 SUB SWAP1 KECCAK256 PUSH1 0x3 ADD SLOAD PUSH1 0x0 EQ PUSH2 0xC22 JUMPI PUSH1 0x40 MLOAD PUSH3 0x461BCD PUSH1 0xE5 SHL DUP2 MSTORE PUSH1 0x20 PUSH1 0x4 DUP3 ADD MSTORE PUSH1 0x26 PUSH1 0x24 DUP3 ADD MSTORE PUSH32 0x4D656574696E6752656769737472793A206D656574696E6720616C7265616479 PUSH1 0x44 DUP3 ADD MSTORE PUSH6 0x8195B991959 PUSH1 0xD2 SHL PUSH1 0x64 DUP3 ADD MSTORE PUSH1 0x84 ADD PUSH2 0x445 JUMP JUMPDEST TIMESTAMP PUSH1 0x0 DUP5 DUP5 PUSH1 0x40 MLOAD PUSH2 0xC35 SWAP3 SWAP2 SWAP1 PUSH2 0x1232 JUMP JUMPDEST SWAP1 DUP2 MSTORE PUSH1 0x20 ADD PUSH1 0x40 MLOAD DUP1 SWAP2 SUB SWAP1 KECCAK256 PUSH1 0x3 ADD DUP2 SWAP1 SSTORE POP DUP1 PUSH1 0x0 DUP5 DUP5 PUSH1 0x40 MLOAD PUSH2 0xC5D SWAP3 SWAP2 SWAP1 PUSH2 0x1232 JUMP JUMPDEST SWAP1 DUP2 MSTORE PUSH1 0x40 MLOAD SWAP1 DUP2 SWAP1 SUB PUSH1 0x20 ADD DUP2 KECCAK256 PUSH1 0x5 ADD SWAP2 SWAP1 SWAP2 SSTORE CALLER SWAP1 PUSH2 0xC82 SWAP1 DUP6 SWAP1 DUP6 SWAP1 PUSH2 0x1232 JUMP JUMPDEST PUSH1 0x40 MLOAD DUP1 SWAP2 SUB SWAP1 KECCAK256 PUSH32 0x7B4715A0F956ACDB6D952AB5B74BBD89B416CBC28086CF0F48F2D841BA7F92AC TIMESTAMP PUSH1 0x0 DUP8 DUP8 PUSH1 0x40 MLOAD PUSH2 0xCBE SWAP3 SWAP2 SWAP1 PUSH2 0x1232 JUMP JUMPDEST SWAP1 DUP2 MSTORE PUSH1 0x40 DUP1 MLOAD PUSH1 0x20 SWAP3 DUP2 SWAP1 SUB DUP4 ADD DUP2 KECCAK256 PUSH1 0x4 ADD SLOAD SWAP4 DUP2 MSTORE SWAP2 DUP3 ADD SWAP3 SWAP1 SWAP3 MSTORE SWAP1 DUP2 ADD DUP6 SWAP1 MSTORE PUSH1 0x60 ADD PUSH1 0x40 MLOAD DUP1 SWAP2 SUB SWAP1 LOG3 POP POP POP JUMP JUMPDEST PUSH1 0x60 PUSH1 0x1 DUP4 DUP4 PUSH1 0x40 MLOAD PUSH2 0xD07 SWAP3 SWAP2 SWAP1 PUSH2 0x1232 JUMP JUMPDEST SWAP1 DUP2 MSTORE PUSH1 0x40 DUP1 MLOAD SWAP2 DUP3 SWAP1 SUB PUSH1 0x20 SWAP1 DUP2 ADD DUP4 KECCAK256 DUP1 SLOAD DUP1 DUP4 MUL DUP6 ADD DUP4 ADD SWAP1 SWAP4 MSTORE DUP3 DUP5 MSTORE SWAP2 SWAP1 DUP4 ADD DUP3 DUP3 DUP1 ISZERO PUSH2 0xD63 JUMPI PUSH1 0x20 MUL DUP3 ADD SWAP2 SWAP1 PUSH1 0x0 MSTORE PUSH1 0x20 PUSH1 0x0 KECCAK256 SWAP1 JUMPDEST DUP2 SLOAD PUSH1 0x1 PUSH1 0x1 PUSH1 0xA0 SHL SUB AND DUP2 MSTORE PUSH1 0x1 SWAP1 SWAP2 ADD SWAP1 PUSH1 0x20 ADD DUP1 DUP4 GT PUSH2 0xD45 JUMPI JUMPDEST POP POP POP POP POP SWAP1 POP SWAP3 SWAP2 POP POP JUMP JUMPDEST PUSH1 0x0 DUP3 DUP3 PUSH1 0x40 MLOAD PUSH2 0xD82 SWAP3 SWAP2 SWAP1 PUSH2 0x1232 JUMP JUMPDEST SWAP1 DUP2 MSTORE PUSH1 0x20 ADD PUSH1 0x40 MLOAD DUP1 SWAP2 SUB SWAP1 KECCAK256 PUSH1 0x2 ADD SLOAD PUSH1 0x0 SUB PUSH2 0xDB3 JUMPI PUSH1 0x40 MLOAD PUSH3 0x461BCD PUSH1 0xE5 SHL DUP2 MSTORE PUSH1 0x4 ADD PUSH2 0x445 SWAP1 PUSH2 0x14E5 JUMP JUMPDEST PUSH1 0x0 DUP3 DUP3 PUSH1 0x40 MLOAD PUSH2 0xDC5 SWAP3 SWAP2 SWAP1 PUSH2 0x1232 JUMP JUMPDEST SWAP1 DUP2 MSTORE PUSH1 0x20 ADD PUSH1 0x40 MLOAD DUP1 SWAP2 SUB SWAP1 KECCAK256 PUSH1 0x3 ADD SLOAD PUSH1 0x0 EQ PUSH2 0xDF6 JUMPI PUSH1 0x40 MLOAD PUSH3 0x461BCD PUSH1 0xE5 SHL DUP2 MSTORE PUSH1 0x4 ADD PUSH2 0x445 SWAP1 PUSH2 0x152C JUMP JUMPDEST PUSH1 0x0 DUP3 DUP3 PUSH1 0x40 MLOAD PUSH2 0xE08 SWAP3 SWAP2 SWAP1 PUSH2 0x1232 JUMP JUMPDEST SWAP1 DUP2 MSTORE PUSH1 0x40 MLOAD SWAP1 DUP2 SWAP1 SUB PUSH1 0x20 ADD SWAP1 KECCAK256 PUSH1 0x4 ADD DUP1 SLOAD SWAP1 PUSH1 0x0 PUSH2 0xE28 DUP4 PUSH2 0x156E JUMP JUMPDEST SWAP2 SWAP1 POP SSTORE POP PUSH1 0x1 DUP3 DUP3 PUSH1 0x40 MLOAD PUSH2 0xE3F SWAP3 SWAP2 SWAP1 PUSH2 0x1232 JUMP JUMPDEST SWAP1 DUP2 MSTORE PUSH1 0x40 DUP1 MLOAD PUSH1 0x20 SWAP3 DUP2 SWAP1 SUB DUP4 ADD SWAP1 KECCAK256 DUP1 SLOAD PUSH1 0x1 DUP1 DUP3 ADD DUP4 SSTORE PUSH1 0x0 SWAP3 DUP4 MSTORE DUP5 DUP4 KECCAK256 SWAP1 SWAP2 ADD DUP1 SLOAD CALLER PUSH1 0x1 PUSH1 0x1 PUSH1 0xA0 SHL SUB NOT SWAP1 SWAP2 AND DUP2 OR SWAP1 SWAP2 SSTORE DUP3 MSTORE PUSH1 0x3 DUP5 MSTORE SWAP2 DUP2 KECCAK256 DUP1 SLOAD SWAP3 DUP4 ADD DUP2 SSTORE DUP2 MSTORE SWAP2 SWAP1 SWAP2 KECCAK256 ADD PUSH2 0xE9A DUP3 DUP5 DUP4 PUSH2 0x13EB JUMP JUMPDEST POP PUSH1 0x40 MLOAD CALLER SWAP1 PUSH2 0xEAD SWAP1 DUP5 SWAP1 DUP5 SWAP1 PUSH2 0x1232 JUMP JUMPDEST PUSH1 0x40 MLOAD SWAP1 DUP2 SWAP1 SUB DUP2 KECCAK256 TIMESTAMP DUP3 MSTORE SWAP1 PUSH32 0x32AAD72EB80A36979BC5485D029EB9532FBB61B31487E55E623F7B8B04DD5B05 SWAP1 PUSH1 0x20 ADD PUSH1 0x40 MLOAD DUP1 SWAP2 SUB SWAP1 LOG3 POP POP JUMP JUMPDEST PUSH1 0x0 DUP1 DUP4 PUSH1 0x1F DUP5 ADD SLT PUSH2 0xEFD JUMPI PUSH1 0x0 DUP1 REVERT JUMPDEST POP DUP2 CALLDATALOAD PUSH8 0xFFFFFFFFFFFFFFFF DUP2 GT ISZERO PUSH2 0xF15 JUMPI PUSH1 0x0 DUP1 REVERT JUMPDEST PUSH1 0x20 DUP4 ADD SWAP2 POP DUP4 PUSH1 0x20 DUP3 DUP6 ADD ADD GT ISZERO PUSH2 0xF2D JUMPI PUSH1 0x0 DUP1 REVERT JUMPDEST SWAP3 POP SWAP3 SWAP1 POP JUMP JUMPDEST PUSH1 0x0 DUP1 PUSH1 0x20 DUP4 DUP6 SUB SLT ISZERO PUSH2 0xF47 JUMPI PUSH1 0x0 DUP1 REVERT JUMPDEST DUP3 CALLDATALOAD PUSH8 0xFFFFFFFFFFFFFFFF DUP2 GT ISZERO PUSH2 0xF5E JUMPI PUSH1 0x0 DUP1 REVERT JUMPDEST PUSH2 0xF6A DUP6 DUP3 DUP7 ADD PUSH2 0xEEB JUMP JUMPDEST SWAP1 SWAP7 SWAP1 SWAP6 POP SWAP4 POP POP POP POP JUMP JUMPDEST PUSH1 0x0 DUP2 MLOAD DUP1 DUP5 MSTORE PUSH1 0x0 JUMPDEST DUP2 DUP2 LT ISZERO PUSH2 0xF9C JUMPI PUSH1 0x20 DUP2 DUP6 ADD DUP2 ADD MLOAD DUP7 DUP4 ADD DUP3 ADD MSTORE ADD PUSH2 0xF80 JUMP JUMPDEST POP PUSH1 0x0 PUSH1 0x20 DUP3 DUP7 ADD ADD MSTORE PUSH1 0x20 PUSH1 0x1F NOT PUSH1 0x1F DUP4 ADD AND DUP6 ADD ADD SWAP2 POP POP SWAP3 SWAP2 POP POP JUMP JUMPDEST PUSH1 0x20 DUP2 MSTORE PUSH1 0x0 DUP3 MLOAD PUSH1 0xE0 PUSH1 0x20 DUP5 ADD MSTORE PUSH2 0xFD9 PUSH2 0x100 DUP5 ADD DUP3 PUSH2 0xF76 JUMP JUMPDEST SWAP1 POP PUSH1 0x1 DUP1 PUSH1 0xA0 SHL SUB PUSH1 0x20 DUP6 ADD MLOAD AND PUSH1 0x40 DUP5 ADD MSTORE PUSH1 0x40 DUP5 ADD MLOAD PUSH1 0x60 DUP5 ADD MSTORE PUSH1 0x60 DUP5 ADD MLOAD PUSH1 0x80 DUP5 ADD MSTORE PUSH1 0x80 DUP5 ADD MLOAD PUSH1 0xA0 DUP5 ADD MSTORE PUSH1 0xA0 DUP5 ADD MLOAD PUSH1 0xC0 DUP5 ADD MSTORE PUSH1 0xC0 DUP5 ADD MLOAD PUSH1 0x1F NOT DUP5 DUP4 SUB ADD PUSH1 0xE0 DUP6 ADD MSTORE PUSH2 0x1030 DUP3 DUP3 PUSH2 0xF76 JUMP JUMPDEST SWAP6 SWAP5 POP POP POP POP POP JUMP JUMPDEST PUSH1 0x0 PUSH1 0x20 DUP3 DUP5 SUB SLT ISZERO PUSH2 0x104B JUMPI PUSH1 0x0 DUP1 REVERT JUMPDEST DUP2 CALLDATALOAD PUSH1 0x1 PUSH1 0x1 PUSH1 0xA0 SHL SUB DUP2 AND DUP2 EQ PUSH2 0x1062 JUMPI PUSH1 0x0 DUP1 REVERT JUMPDEST SWAP4 SWAP3 POP POP POP JUMP JUMPDEST PUSH1 0x0 PUSH1 0x20 DUP1 DUP4 ADD DUP2 DUP5 MSTORE DUP1 DUP6 MLOAD DUP1 DUP4 MSTORE PUSH1 0x40 DUP7 ADD SWAP2 POP PUSH1 0x40 DUP2 PUSH1 0x5 SHL DUP8 ADD ADD SWAP3 POP DUP4 DUP8 ADD PUSH1 0x0 JUMPDEST DUP3 DUP2 LT ISZERO PUSH2 0x10BE JUMPI PUSH1 0x3F NOT DUP9 DUP7 SUB ADD DUP5 MSTORE PUSH2 0x10AC DUP6 DUP4 MLOAD PUSH2 0xF76 JUMP JUMPDEST SWAP5 POP SWAP3 DUP6 ADD SWAP3 SWAP1 DUP6 ADD SWAP1 PUSH1 0x1 ADD PUSH2 0x1090 JUMP JUMPDEST POP SWAP3 SWAP8 SWAP7 POP POP POP POP POP POP POP JUMP JUMPDEST PUSH1 0x0 DUP1 PUSH1 0x0 DUP1 PUSH1 0x40 DUP6 DUP8 SUB SLT ISZERO PUSH2 0x10E1 JUMPI PUSH1 0x0 DUP1 REVERT JUMPDEST DUP5 CALLDATALOAD PUSH8 0xFFFFFFFFFFFFFFFF DUP1 DUP3 GT ISZERO PUSH2 0x10F9 JUMPI PUSH1 0x0 DUP1 REVERT JUMPDEST PUSH2 0x1105 DUP9 DUP4 DUP10 ADD PUSH2 0xEEB JUMP JUMPDEST SWAP1 SWAP7 POP SWAP5 POP PUSH1 0x20 DUP8 ADD CALLDATALOAD SWAP2 POP DUP1 DUP3 GT ISZERO PUSH2 0x111E JUMPI PUSH1 0x0 DUP1 REVERT JUMPDEST POP PUSH2 0x112B DUP8 DUP3 DUP9 ADD PUSH2 0xEEB JUMP JUMPDEST SWAP6 SWAP9 SWAP5 SWAP8 POP SWAP6 POP POP POP POP JUMP JUMPDEST PUSH1 0x0 DUP1 PUSH1 0x0 DUP1 PUSH1 0x0 DUP1 PUSH1 0xA0 DUP8 DUP10 SUB SLT ISZERO PUSH2 0x1150 JUMPI PUSH1 0x0 DUP1 REVERT JUMPDEST DUP7 CALLDATALOAD PUSH8 0xFFFFFFFFFFFFFFFF DUP2 GT ISZERO PUSH2 0x1167 JUMPI PUSH1 0x0 DUP1 REVERT JUMPDEST PUSH2 0x1173 DUP10 DUP3 DUP11 ADD PUSH2 0xEEB JUMP JUMPDEST SWAP1 SWAP11 SWAP1 SWAP10 POP PUSH1 0x20 DUP10 ADD CALLDATALOAD SWAP9 PUSH1 0x40 DUP2 ADD CALLDATALOAD SWAP9 POP PUSH1 0x60 DUP2 ADD CALLDATALOAD SWAP8 POP PUSH1 0x80 ADD CALLDATALOAD SWAP6 POP SWAP4 POP POP POP POP JUMP JUMPDEST PUSH1 0x0 DUP1 PUSH1 0x0 PUSH1 0x40 DUP5 DUP7 SUB SLT ISZERO PUSH2 0x11AE JUMPI PUSH1 0x0 DUP1 REVERT JUMPDEST DUP4 CALLDATALOAD PUSH8 0xFFFFFFFFFFFFFFFF DUP2 GT ISZERO PUSH2 0x11C5 JUMPI PUSH1 0x0 DUP1 REVERT JUMPDEST PUSH2 0x11D1 DUP7 DUP3 DUP8 ADD PUSH2 0xEEB JUMP JUMPDEST SWAP1 SWAP8 SWAP1 SWAP7 POP PUSH1 0x20 SWAP6 SWAP1 SWAP6 ADD CALLDATALOAD SWAP5 SWAP4 POP POP POP POP JUMP JUMPDEST PUSH1 0x20 DUP1 DUP3 MSTORE DUP3 MLOAD DUP3 DUP3 ADD DUP2 SWAP1 MSTORE PUSH1 0x0 SWAP2 SWAP1 DUP5 DUP3 ADD SWAP1 PUSH1 0x40 DUP6 ADD SWAP1 DUP5 JUMPDEST DUP2 DUP2 LT ISZERO PUSH2 0x1226 JUMPI DUP4 MLOAD PUSH1 0x1 PUSH1 0x1 PUSH1 0xA0 SHL SUB AND DUP4 MSTORE SWAP3 DUP5 ADD SWAP3 SWAP2 DUP5 ADD SWAP2 PUSH1 0x1 ADD PUSH2 0x1201 JUMP JUMPDEST POP SWAP1 SWAP7 SWAP6 POP POP POP POP POP POP JUMP JUMPDEST DUP2 DUP4 DUP3 CALLDATACOPY PUSH1 0x0 SWAP2 ADD SWAP1 DUP2 MSTORE SWAP2 SWAP1 POP JUMP JUMPDEST PUSH1 0x1 DUP2 DUP2 SHR SWAP1 DUP3 AND DUP1 PUSH2 0x1256 JUMPI PUSH1 0x7F DUP3 AND SWAP2 POP JUMPDEST PUSH1 0x20 DUP3 LT DUP2 SUB PUSH2 0x1276 JUMPI PUSH4 0x4E487B71 PUSH1 0xE0 SHL PUSH1 0x0 MSTORE PUSH1 0x22 PUSH1 0x4 MSTORE PUSH1 0x24 PUSH1 0x0 REVERT JUMPDEST POP SWAP2 SWAP1 POP JUMP JUMPDEST PUSH1 0x20 DUP1 DUP3 MSTORE PUSH1 0x2A SWAP1 DUP3 ADD MSTORE PUSH32 0x4D656574696E6752656769737472793A206D656574696E6749642063616E6E6F PUSH1 0x40 DUP3 ADD MSTORE PUSH10 0x7420626520656D707479 PUSH1 0xB0 SHL PUSH1 0x60 DUP3 ADD MSTORE PUSH1 0x80 ADD SWAP1 JUMP JUMPDEST PUSH4 0x4E487B71 PUSH1 0xE0 SHL PUSH1 0x0 MSTORE PUSH1 0x41 PUSH1 0x4 MSTORE PUSH1 0x24 PUSH1 0x0 REVERT JUMPDEST PUSH1 0x1F DUP3 GT ISZERO PUSH2 0x1326 JUMPI PUSH1 0x0 DUP2 DUP2 MSTORE PUSH1 0x20 DUP2 KECCAK256 PUSH1 0x1F DUP6 ADD PUSH1 0x5 SHR DUP2 ADD PUSH1 0x20 DUP7 LT ISZERO PUSH2 0x1303 JUMPI POP DUP1 JUMPDEST PUSH1 0x1F DUP6 ADD PUSH1 0x5 SHR DUP3 ADD SWAP2 POP JUMPDEST DUP2 DUP2 LT ISZERO PUSH2 0x1322 JUMPI DUP3 DUP2 SSTORE PUSH1 0x1 ADD PUSH2 0x130F JUMP JUMPDEST POP POP POP JUMPDEST POP POP POP JUMP JUMPDEST DUP2 MLOAD PUSH8 0xFFFFFFFFFFFFFFFF DUP2 GT ISZERO PUSH2 0x1345 JUMPI PUSH2 0x1345 PUSH2 0x12C6 JUMP JUMPDEST PUSH2 0x1359 DUP2 PUSH2 0x1353 DUP5 SLOAD PUSH2 0x1242 JUMP JUMPDEST DUP5 PUSH2 0x12DC JUMP JUMPDEST PUSH1 0x20 DUP1 PUSH1 0x1F DUP4 GT PUSH1 0x1 DUP2 EQ PUSH2 0x138E JUMPI PUSH1 0x0 DUP5 ISZERO PUSH2 0x1376 JUMPI POP DUP6 DUP4 ADD MLOAD JUMPDEST PUSH1 0x0 NOT PUSH1 0x3 DUP7 SWAP1 SHL SHR NOT AND PUSH1 0x1 DUP6 SWAP1 SHL OR DUP6 SSTORE PUSH2 0x1322 JUMP JUMPDEST PUSH1 0x0 DUP6 DUP2 MSTORE PUSH1 0x20 DUP2 KECCAK256 PUSH1 0x1F NOT DUP7 AND SWAP2 JUMPDEST DUP3 DUP2 LT ISZERO PUSH2 0x13BD JUMPI DUP9 DUP7 ADD MLOAD DUP3 SSTORE SWAP5 DUP5 ADD SWAP5 PUSH1 0x1 SWAP1 SWAP2 ADD SWAP1 DUP5 ADD PUSH2 0x139E JUMP JUMPDEST POP DUP6 DUP3 LT ISZERO PUSH2 0x13DB JUMPI DUP8 DUP6 ADD MLOAD PUSH1 0x0 NOT PUSH1 0x3 DUP9 SWAP1 SHL PUSH1 0xF8 AND SHR NOT AND DUP2 SSTORE JUMPDEST POP POP POP POP POP PUSH1 0x1 SWAP1 DUP2 SHL ADD SWAP1 SSTORE POP JUMP JUMPDEST PUSH8 0xFFFFFFFFFFFFFFFF DUP4 GT ISZERO PUSH2 0x1403 JUMPI PUSH2 0x1403 PUSH2 0x12C6 JUMP JUMPDEST PUSH2 0x1417 DUP4 PUSH2 0x1411 DUP4 SLOAD PUSH2 0x1242 JUMP JUMPDEST DUP4 PUSH2 0x12DC JUMP JUMPDEST PUSH1 0x0 PUSH1 0x1F DUP5 GT PUSH1 0x1 DUP2 EQ PUSH2 0x144B JUMPI PUSH1 0x0 DUP6 ISZERO PUSH2 0x1433 JUMPI POP DUP4 DUP3 ADD CALLDATALOAD JUMPDEST PUSH1 0x0 NOT PUSH1 0x3 DUP8 SWAP1 SHL SHR NOT AND PUSH1 0x1 DUP7 SWAP1 SHL OR DUP4 SSTORE PUSH2 0x14A5 JUMP JUMPDEST PUSH1 0x0 DUP4 DUP2 MSTORE PUSH1 0x20 SWAP1 KECCAK256 PUSH1 0x1F NOT DUP7 AND SWAP1 DUP4 JUMPDEST DUP3 DUP2 LT ISZERO PUSH2 0x147C JUMPI DUP7 DUP6 ADD CALLDATALOAD DUP3 SSTORE PUSH1 0x20 SWAP5 DUP6 ADD SWAP5 PUSH1 0x1 SWAP1 SWAP3 ADD SWAP2 ADD PUSH2 0x145C JUMP JUMPDEST POP DUP7 DUP3 LT ISZERO PUSH2 0x1499 JUMPI PUSH1 0x0 NOT PUSH1 0xF8 DUP9 PUSH1 0x3 SHL AND SHR NOT DUP5 DUP8 ADD CALLDATALOAD AND DUP2 SSTORE JUMPDEST POP POP PUSH1 0x1 DUP6 PUSH1 0x1 SHL ADD DUP4 SSTORE JUMPDEST POP POP POP POP POP JUMP JUMPDEST PUSH1 0x40 DUP2 MSTORE DUP3 PUSH1 0x40 DUP3 ADD MSTORE DUP3 DUP5 PUSH1 0x60 DUP4 ADD CALLDATACOPY PUSH1 0x0 PUSH1 0x60 DUP5 DUP4 ADD ADD MSTORE PUSH1 0x0 PUSH1 0x60 PUSH1 0x1F NOT PUSH1 0x1F DUP7 ADD AND DUP4 ADD ADD SWAP1 POP DUP3 PUSH1 0x20 DUP4 ADD MSTORE SWAP5 SWAP4 POP POP POP POP JUMP JUMPDEST PUSH1 0x20 DUP1 DUP3 MSTORE PUSH1 0x27 SWAP1 DUP3 ADD MSTORE PUSH32 0x4D656574696E6752656769737472793A206D656574696E6720646F6573206E6F PUSH1 0x40 DUP3 ADD MSTORE PUSH7 0x1D08195E1A5CDD PUSH1 0xCA SHL PUSH1 0x60 DUP3 ADD MSTORE PUSH1 0x80 ADD SWAP1 JUMP JUMPDEST PUSH1 0x20 DUP1 DUP3 MSTORE PUSH1 0x22 SWAP1 DUP3 ADD MSTORE PUSH32 0x4D656574696E6752656769737472793A206D656574696E672068617320656E64 PUSH1 0x40 DUP3 ADD MSTORE PUSH2 0x1959 PUSH1 0xF2 SHL PUSH1 0x60 DUP3 ADD MSTORE PUSH1 0x80 ADD SWAP1 JUMP JUMPDEST PUSH1 0x0 PUSH1 0x1 DUP3 ADD PUSH2 0x158E JUMPI PUSH4 0x4E487B71 PUSH1 0xE0 SHL PUSH1 0x0 MSTORE PUSH1 0x11 PUSH1 0x4 MSTORE PUSH1 0x24 PUSH1 0x0 REVERT JUMPDEST POP PUSH1 0x1 ADD SWAP1 JUMP INVALID LOG2 PUSH5 0x6970667358 0x22 SLT KECCAK256 SWAP6 MSTORE DUP14 SWAP8 SHL SWAP14 SWAP8 DUP15 0xEF PUSH7 0x7A812363C315F6 PUSH4 0x64928DEC 0xEB DUP2 CALLER 0xC8 0xE5 CALLVALUE 0xB5 MUL PUSH19 0xE464736F6C6343000814003300000000000000 "},"methodIdentifiers":{"createMeeting(string,string)":"3e84279a","endMeeting(string,bytes32)":"a3f27d1d","getMeeting(string)":"2f42e480","getMeetingParticipants(string)":"b18c8438","getMeetingsByHost(address)":"3c318022","joinMeeting(string)":"e5f72443","sendMessage(string,string)":"467fba0f","storeMeeting(string,uint256,uint256,uint256,bytes32)":"889e205b"}}}}}