{
  "_format": "hh-sol-artifact-1",
  "contractName": "MeetingRegistry",
  "sourceName": "contracts/MeetingRegistry.sol",
  "abi": [
    {
      "anonymous": false,
      "inputs": [
        {
          "indexed": true,
          "internalType": "string",
          "name": "meetingId",
          "type": "string"
        },
        {
          "indexed": true,
          "internalType": "address",
          "name": "host",
          "type": "address"
        },
        {
          "indexed": false,
          "internalType": "string",
          "name": "metadataCID",
          "type": "string"
        },
        {
          "indexed": false,
          "internalType": "uint256",
          "name": "timestamp",
          "type": "uint256"
        }
      ],
      "name": "MeetingCreated",
      "type": "event"
    },
    {
      "anonymous": false,
      "inputs": [
        {
          "indexed": true,
          "internalType": "string",
          "name": "meetingId",
          "type": "string"
        },
        {
          "indexed": true,
          "internalType": "address",
          "name": "host",
          "type": "address"
        },
        {
          "indexed": false,
          "internalType": "uint256",
          "name": "endTime",
          "type": "uint256"
        },
        {
          "indexed": false,
          "internalType": "uint256",
          "name": "participantCount",
          "type": "uint256"
        },
        {
          "indexed": false,
          "internalType": "bytes32",
          "name": "notesHash",
          "type": "bytes32"
        }
      ],
      "name": "MeetingEnded",
      "type": "event"
    },
    {
      "anonymous": false,
      "inputs": [
        {
          "indexed": true,
          "internalType": "string",
          "name": "meetingId",
          "type": "string"
        },
        {
          "indexed": true,
          "internalType": "address",
          "name": "host",
          "type": "address"
        },
        {
          "indexed": false,
          "internalType": "uint256",
          "name": "timestamp",
          "type": "uint256"
        }
      ],
      "name": "MeetingStored",
      "type": "event"
    },
    {
      "anonymous": false,
      "inputs": [
        {
          "indexed": true,
          "internalType": "string",
          "name": "meetingId",
          "type": "string"
        },
        {
          "indexed": true,
          "internalType": "address",
          "name": "sender",
          "type": "address"
        },
        {
          "indexed": false,
          "internalType": "string",
          "name": "contentCID",
          "type": "string"
        },
        {
          "indexed": false,
          "internalType": "uint256",
          "name": "timestamp",
          "type": "uint256"
        }
      ],
      "name": "MessageSent",
      "type": "event"
    },
    {
      "anonymous": false,
      "inputs": [
        {
          "indexed": true,
          "internalType": "string",
          "name": "meetingId",
          "type": "string"
        },
        {
          "indexed": true,
          "internalType": "address",
          "name": "participant",
          "type": "address"
        },
        {
          "indexed": false,
          "internalType": "uint256",
          "name": "timestamp",
          "type": "uint256"
        }
      ],
      "name": "ParticipantJoined",
      "type": "event"
    },
    {
      "inputs": [
        {
          "internalType": "string",
          "name": "meetingId",
          "type": "string"
        },
        {
          "internalType": "string",
          "name": "metadataCID",
          "type": "string"
        }
      ],
      "name": "createMeeting",
      "outputs": [],
      "stateMutability": "nonpayable",
      "type": "function"
    },
    {
      "inputs": [
        {
          "internalType": "string",
          "name": "meetingId",
          "type": "string"
        },
        {
          "internalType": "bytes32",
          "name": "notesHash",
          "type": "bytes32"
        }
      ],
      "name": "endMeeting",
      "outputs": [],
      "stateMutability": "nonpayable",
      "type": "function"
    },
    {
      "inputs": [
        {
          "internalType": "string",
          "name": "meetingId",
          "type": "string"
        }
      ],
      "name": "getMeeting",
      "outputs": [
        {
          "components": [
            {
              "internalType": "string",
              "name": "meetingId",
              "type": "string"
            },
            {
              "internalType": "address",
              "name": "host",
              "type": "address"
            },
            {
              "internalType": "uint256",
              "name": "startTime",
              "type": "uint256"
            },
            {
              "internalType": "uint256",
              "name": "endTime",
              "type": "uint256"
            },
            {
              "internalType": "uint256",
              "name": "participantCount",
              "type": "uint256"
            },
            {
              "internalType": "bytes32",
              "name": "notesHash",
              "type": "bytes32"
            },
            {
              "internalType": "string",
              "name": "metadataCID",
              "type": "string"
            }
          ],
          "internalType": "struct MeetingRegistry.Meeting",
          "name": "",
          "type": "tuple"
        }
      ],
      "stateMutability": "view",
      "type": "function"
    },
    {
      "inputs": [
        {
          "internalType": "string",
          "name": "meetingId",
          "type": "string"
        }
      ],
      "name": "getMeetingParticipants",
      "outputs": [
        {
          "internalType": "address[]",
          "name": "",
          "type": "address[]"
        }
      ],
      "stateMutability": "view",
      "type": "function"
    },
    {
      "inputs": [
        {
          "internalType": "address",
          "name": "host",
          "type": "address"
        }
      ],
      "name": "getMeetingsByHost",
      "outputs": [
        {
          "internalType": "string[]",
          "name": "",
          "type": "string[]"
        }
      ],
      "stateMutability": "view",
      "type": "function"
    },
    {
      "inputs": [
        {
          "internalType": "string",
          "name": "meetingId",
          "type": "string"
        }
      ],
      "name": "joinMeeting",
      "outputs": [],
      "stateMutability": "nonpayable",
      "type": "function"
    },
    {
      "inputs": [
        {
          "internalType": "string",
          "name": "meetingId",
          "type": "string"
        },
        {
          "internalType": "string",
          "name": "contentCID",
          "type": "string"
        }
      ],
      "name": "sendMessage",
      "outputs": [],
      "stateMutability": "nonpayable",
      "type": "function"
    },
    {
      "inputs": [
        {
          "internalType": "string",
          "name": "meetingId",
          "type": "string"
        },
        {
          "internalType": "uint256",
          "name": "startTime",
          "type": "uint256"
        },
        {
          "internalType": "uint256",
          "name": "endTime",
          "type": "uint256"
        },
        {
          "internalType": "uint256",
          "name": "participantCount",
          "type": "uint256"
        },
        {
          "internalType": "bytes32",
          "name": "notesHash",
          "type": "bytes32"
        }
      ],
      "name": "storeMeeting",
      "outputs": [],
      "stateMutability": "nonpayable",
      "type": "function"
    }
  ],
  "bytecode": "0x6080604052348015600e575f5ffd5b5061154e8061001c5f395ff3fe608060405234801561000f575f5ffd5b5060043610610085575f3560e01c8063889e205b11610058578063889e205b146100fa578063a3f27d1d1461010d578063b18c843814610120578063e5f7244314610140575f5ffd5b80632f42e480146100895780633c318022146100b25780633e84279a146100d2578063467fba0f146100e7575b5f5ffd5b61009c610097366004610ef9565b610153565b6040516100a99190610f66565b60405180910390f35b6100c56100c0366004610fe2565b610327565b6040516100a9919061100f565b6100e56100e0366004611072565b610411565b005b6100e56100f5366004611072565b6106e3565b6100e56101083660046110de565b6107b2565b6100e561011b36600461113b565b610a9f565b61013361012e366004610ef9565b610cc5565b6040516100a99190611183565b6100e561014e366004610ef9565b610d40565b6101976040518060e00160405280606081526020015f6001600160a01b031681526020015f81526020015f81526020015f81526020015f8152602001606081525090565b5f83836040516101a89291906111ce565b90815260200160405180910390206040518060e00160405290815f820180546101d0906111dd565b80601f01602080910402602001604051908101604052809291908181526020018280546101fc906111dd565b80156102475780601f1061021e57610100808354040283529160200191610247565b820191905f5260205f20905b81548152906001019060200180831161022a57829003601f168201915b505050918352505060018201546001600160a01b03166020820152600282015460408201526003820154606082015260048201546080820152600582015460a082015260068201805460c09092019161029f906111dd565b80601f01602080910402602001604051908101604052809291908181526020018280546102cb906111dd565b80156103165780601f106102ed57610100808354040283529160200191610316565b820191905f5260205f20905b8154815290600101906020018083116102f957829003601f168201915b505050505081525050905092915050565b6001600160a01b0381165f908152600260209081526040808320805482518185028101850190935280835260609492939192909184015b82821015610406578382905f5260205f2001805461037b906111dd565b80601f01602080910402602001604051908101604052809291908181526020018280546103a7906111dd565b80156103f25780601f106103c9576101008083540402835291602001916103f2565b820191905f5260205f20905b8154815290600101906020018083116103d557829003601f168201915b50505050508152602001906001019061035e565b505050509050919050565b826104375760405162461bcd60e51b815260040161042e90611215565b60405180910390fd5b5f84846040516104489291906111ce565b9081526020016040518091039020600201545f146104b85760405162461bcd60e51b815260206004820152602760248201527f4d656574696e6752656769737472793a206d656574696e6720616c72656164796044820152662065786973747360c81b606482015260840161042e565b6040518060e0016040528085858080601f0160208091040260200160405190810160405280939291908181526020018383808284375f92018290525093855250503360208085019190915242604080860191909152606085018490526001608086015260a08501939093528251601f870182900482028101820190935285835260c0909301928691508590819084018382808284375f92018290525093909452505060405190915061056d90879087906111ce565b9081526040519081900360200190208151819061058a90826112bf565b5060208201516001820180546001600160a01b0319166001600160a01b0390921691909117905560408201516002820155606082015160038201556080820151600482015560a0820151600582015560c082015160068201906105ed90826112bf565b50905050600184846040516106039291906111ce565b90815260408051602092819003830190208054600180820183555f9283528483209091018054336001600160a01b03199091168117909155825260028452918120805492830181558152919091200161065d84868361137a565b50335f9081526003602090815260408220805460018101825590835291200161068784868361137a565b50604051339061069a90869086906111ce565b60405180910390207f5d94e16798d1576a08686758cd14327f6abc1fac8c3cb3abbbced843cadf94548484426040516106d593929190611434565b60405180910390a350505050565b5f84846040516106f49291906111ce565b9081526020016040518091039020600201545f036107245760405162461bcd60e51b815260040161042e9061146b565b5f84846040516107359291906111ce565b9081526020016040518091039020600301545f146107655760405162461bcd60e51b815260040161042e906114b2565b604051339061077790869086906111ce565b60405180910390207fd5ee9752e991aa4c49f34d9ef11d00f6ce0ccf591e98dc9e2f30b530f2d980f98484426040516106d593929190611434565b846107cf5760405162461bcd60e51b815260040161042e90611215565b5f86866040516107e09291906111ce565b9081526020016040518091039020600201545f146108505760405162461bcd60e51b815260206004820152602760248201527f4d656574696e6752656769737472793a206d656574696e6720616c7265616479604482015266081cdd1bdc995960ca1b606482015260840161042e565b5f84116108b35760405162461bcd60e51b815260206004820152602b60248201527f4d656574696e6752656769737472793a20737461727454696d65206d7573742060448201526a6265206e6f6e2d7a65726f60a81b606482015260840161042e565b838310156109155760405162461bcd60e51b815260206004820152602960248201527f4d656574696e6752656769737472793a20656e6454696d65206265666f726520604482015268737461727454696d6560b81b606482015260840161042e565b6040518060e0016040528087878080601f0160208091040260200160405190810160405280939291908181526020018383808284375f92018290525093855250503360208085019190915260408085018a9052606085018990526080850188905260a085018790528051918201815283825260c09094015250905161099d90899089906111ce565b908152604051908190036020019020815181906109ba90826112bf565b5060208201516001820180546001600160a01b0319166001600160a01b0390921691909117905560408201516002820155606082015160038201556080820151600482015560a0820151600582015560c08201516006820190610a1d90826112bf565b5050335f908152600260209081526040822080546001810182559083529120019050610a4a86888361137a565b506040513390610a5d90889088906111ce565b604051908190038120428252907ffdf018fa90555d28111ba8002245da5f26f7f539f2812f034bbf3cd575c052f69060200160405180910390a3505050505050565b5f8383604051610ab09291906111ce565b9081526020016040518091039020600201545f03610ae05760405162461bcd60e51b815260040161042e9061146b565b336001600160a01b03165f8484604051610afb9291906111ce565b908152604051908190036020019020600101546001600160a01b031614610b775760405162461bcd60e51b815260206004820152602a60248201527f4d656574696e6752656769737472793a206f6e6c7920686f73742063616e20656044820152696e64206d656574696e6760b01b606482015260840161042e565b5f8383604051610b889291906111ce565b9081526020016040518091039020600301545f14610bf75760405162461bcd60e51b815260206004820152602660248201527f4d656574696e6752656769737472793a206d656574696e6720616c726561647960448201526508195b99195960d21b606482015260840161042e565b425f8484604051610c099291906111ce565b908152602001604051809103902060030181905550805f8484604051610c309291906111ce565b908152604051908190036020018120600501919091553390610c5590859085906111ce565b60405180910390207f7b4715a0f956acdb6d952ab5b74bbd89b416cbc28086cf0f48f2d841ba7f92ac425f8787604051610c909291906111ce565b9081526040805160209281900383018120600401549381529182019290925290810185905260600160405180910390a3505050565b606060018383604051610cd99291906111ce565b9081526040805191829003602090810183208054808302850183019093528284529190830182828015610d3357602002820191905f5260205f20905b81546001600160a01b03168152600190910190602001808311610d15575b5050505050905092915050565b5f8282604051610d519291906111ce565b9081526020016040518091039020600201545f03610d815760405162461bcd60e51b815260040161042e9061146b565b5f8282604051610d929291906111ce565b9081526020016040518091039020600301545f14610dc25760405162461bcd60e51b815260040161042e906114b2565b5f8282604051610dd39291906111ce565b9081526040519081900360200190206004018054905f610df2836114f4565b919050555060018282604051610e099291906111ce565b90815260408051602092819003830190208054600180820183555f9283528483209091018054336001600160a01b031990911681179091558252600384529181208054928301815581529190912001610e6382848361137a565b506040513390610e7690849084906111ce565b604051908190038120428252907f32aad72eb80a36979bc5485d029eb9532fbb61b31487e55e623f7b8b04dd5b059060200160405180910390a35050565b5f5f83601f840112610ec4575f5ffd5b50813567ffffffffffffffff811115610edb575f5ffd5b602083019150836020828501011115610ef2575f5ffd5b9250929050565b5f5f60208385031215610f0a575f5ffd5b823567ffffffffffffffff811115610f20575f5ffd5b610f2c85828601610eb4565b90969095509350505050565b5f81518084528060208401602086015e5f602082860101526020601f19601f83011685010191505092915050565b602081525f825160e06020840152610f82610100840182610f38565b905060018060a01b0360208501511660408401526040840151606084015260608401516080840152608084015160a084015260a084015160c084015260c0840151601f198483030160e0850152610fd98282610f38565b95945050505050565b5f60208284031215610ff2575f5ffd5b81356001600160a01b0381168114611008575f5ffd5b9392505050565b5f602082016020835280845180835260408501915060408160051b8601019250602086015f5b8281101561106657603f19878603018452611051858351610f38565b94506020938401939190910190600101611035565b50929695505050505050565b5f5f5f5f60408587031215611085575f5ffd5b843567ffffffffffffffff81111561109b575f5ffd5b6110a787828801610eb4565b909550935050602085013567ffffffffffffffff8111156110c6575f5ffd5b6110d287828801610eb4565b95989497509550505050565b5f5f5f5f5f5f60a087890312156110f3575f5ffd5b863567ffffffffffffffff811115611109575f5ffd5b61111589828a01610eb4565b909a90995060208901359860408101359850606081013597506080013595509350505050565b5f5f5f6040848603121561114d575f5ffd5b833567ffffffffffffffff811115611163575f5ffd5b61116f86828701610eb4565b909790965060209590950135949350505050565b602080825282518282018190525f918401906040840190835b818110156111c35783516001600160a01b031683526020938401939092019160010161119c565b509095945050505050565b818382375f9101908152919050565b600181811c908216806111f157607f821691505b60208210810361120f57634e487b7160e01b5f52602260045260245ffd5b50919050565b6020808252602a908201527f4d656574696e6752656769737472793a206d656574696e6749642063616e6e6f6040820152697420626520656d70747960b01b606082015260800190565b634e487b7160e01b5f52604160045260245ffd5b601f8211156112ba57805f5260205f20601f840160051c810160208510156112985750805b601f840160051c820191505b818110156112b7575f81556001016112a4565b50505b505050565b815167ffffffffffffffff8111156112d9576112d961125f565b6112ed816112e784546111dd565b84611273565b6020601f82116001811461131f575f83156113085750848201515b5f19600385901b1c1916600184901b1784556112b7565b5f84815260208120601f198516915b8281101561134e578785015182556020948501946001909201910161132e565b508482101561136b57868401515f19600387901b60f8161c191681555b50505050600190811b01905550565b67ffffffffffffffff8311156113925761139261125f565b6113a6836113a083546111dd565b83611273565b5f601f8411600181146113d7575f85156113c05750838201355b5f19600387901b1c1916600186901b1783556112b7565b5f83815260208120601f198716915b8281101561140657868501358255602094850194600190920191016113e6565b5086821015611422575f1960f88860031b161c19848701351681555b505060018560011b0183555050505050565b60408152826040820152828460608301375f606084830101525f6060601f19601f8601168301019050826020830152949350505050565b60208082526027908201527f4d656574696e6752656769737472793a206d656574696e6720646f6573206e6f6040820152661d08195e1a5cdd60ca1b606082015260800190565b60208082526022908201527f4d656574696e6752656769737472793a206d656574696e672068617320656e64604082015261195960f21b606082015260800190565b5f6001820161151157634e487b7160e01b5f52601160045260245ffd5b506001019056fea2646970667358221220e83314e8040a7829f53adcbb952545073c2e20436394d373131d12ab53e5148664736f6c634300081c0033",
  "linkReferences": {},
  "deployedLinkReferences": {}
}