{
  "_format": "hh-sol-artifact-1",
  "contractName": "MeetingNFT",
  "sourceName": "contracts/MeetingNFT.sol",
  "abi": [
    {
      "inputs": [
        {
          "internalType": "address",
          "name": "_registry",
          "type": "address"
        }
      ],
      "stateMutability": "nonpayable",
      "type": "constructor"
    },
    {
      "inputs": [
        {
          "internalType": "address",
          "name": "sender",
          "type": "address"
        },
        {
          "internalType": "uint256",
          "name": "tokenId",
          "type": "uint256"
        },
        {
          "internalType": "address",
          "name": "owner",
          "type": "address"
        }
      ],
      "name": "ERC721IncorrectOwner",
      "type": "error"
    },
    {
      "inputs": [
        {
          "internalType": "address",
          "name": "operator",
          "type": "address"
        },
        {
          "internalType": "uint256",
          "name": "tokenId",
          "type": "uint256"
        }
      ],
      "name": "ERC721InsufficientApproval",
      "type": "error"
    },
    {
      "inputs": [
        {
          "internalType": "address",
          "name": "approver",
          "type": "address"
        }
      ],
      "name": "ERC721InvalidApprover",
      "type": "error"
    },
    {
      "inputs": [
        {
          "internalType": "address",
          "name": "operator",
          "type": "address"
        }
      ],
      "name": "ERC721InvalidOperator",
      "type": "error"
    },
    {
      "inputs": [
        {
          "internalType": "address",
          "name": "owner",
          "type": "address"
        }
      ],
      "name": "ERC721InvalidOwner",
      "type": "error"
    },
    {
      "inputs": [
        {
          "internalType": "address",
          "name": "receiver",
          "type": "address"
        }
      ],
      "name": "ERC721InvalidReceiver",
      "type": "error"
    },
    {
      "inputs": [
        {
          "internalType": "address",
          "name": "sender",
          "type": "address"
        }
      ],
      "name": "ERC721InvalidSender",
      "type": "error"
    },
    {
      "inputs": [
        {
          "internalType": "uint256",
          "name": "tokenId",
          "type": "uint256"
        }
      ],
      "name": "ERC721NonexistentToken",
      "type": "error"
    },
    {
      "anonymous": false,
      "inputs": [
        {
          "indexed": true,
          "internalType": "address",
          "name": "owner",
          "type": "address"
        },
        {
          "indexed": true,
          "internalType": "address",
          "name": "approved",
          "type": "address"
        },
        {
          "indexed": true,
          "internalType": "uint256",
          "name": "tokenId",
          "type": "uint256"
        }
      ],
      "name": "Approval",
      "type": "event"
    },
    {
      "anonymous": false,
      "inputs": [
        {
          "indexed": true,
          "internalType": "address",
          "name": "owner",
          "type": "address"
        },
        {
          "indexed": true,
          "internalType": "address",
          "name": "operator",
          "type": "address"
        },
        {
          "indexed": false,
          "internalType": "bool",
          "name": "approved",
          "type": "bool"
        }
      ],
      "name": "ApprovalForAll",
      "type": "event"
    },
    {
      "anonymous": false,
      "inputs": [
        {
          "indexed": false,
          "internalType": "uint256",
          "name": "_fromTokenId",
          "type": "uint256"
        },
        {
          "indexed": false,
          "internalType": "uint256",
          "name": "_toTokenId",
          "type": "uint256"
        }
      ],
      "name": "BatchMetadataUpdate",
      "type": "event"
    },
    {
      "anonymous": false,
      "inputs": [
        {
          "indexed": false,
          "internalType": "uint256",
          "name": "_tokenId",
          "type": "uint256"
        }
      ],
      "name": "MetadataUpdate",
      "type": "event"
    },
    {
      "anonymous": false,
      "inputs": [
        {
          "indexed": true,
          "internalType": "string",
          "name": "meetingId",
          "type": "string"
        },
        {
          "indexed": true,
          "internalType": "address",
          "name": "host",
          "type": "address"
        },
        {
          "indexed": false,
          "internalType": "uint256",
          "name": "tokenId",
          "type": "uint256"
        },
        {
          "indexed": false,
          "internalType": "string",
          "name": "ipfsCid",
          "type": "string"
        }
      ],
      "name": "ReceiptMinted",
      "type": "event"
    },
    {
      "anonymous": false,
      "inputs": [
        {
          "indexed": true,
          "internalType": "address",
          "name": "from",
          "type": "address"
        },
        {
          "indexed": true,
          "internalType": "address",
          "name": "to",
          "type": "address"
        },
        {
          "indexed": true,
          "internalType": "uint256",
          "name": "tokenId",
          "type": "uint256"
        }
      ],
      "name": "Transfer",
      "type": "event"
    },
    {
      "inputs": [
        {
          "internalType": "address",
          "name": "to",
          "type": "address"
        },
        {
          "internalType": "uint256",
          "name": "tokenId",
          "type": "uint256"
        }
      ],
      "name": "approve",
      "outputs": [],
      "stateMutability": "nonpayable",
      "type": "function"
    },
    {
      "inputs": [
        {
          "internalType": "address",
          "name": "owner",
          "type": "address"
        }
      ],
      "name": "balanceOf",
      "outputs": [
        {
          "internalType": "uint256",
          "name": "",
          "type": "uint256"
        }
      ],
      "stateMutability": "view",
      "type": "function"
    },
    {
      "inputs": [
        {
          "internalType": "uint256",
          "name": "tokenId",
          "type": "uint256"
        }
      ],
      "name": "getApproved",
      "outputs": [
        {
          "internalType": "address",
          "name": "",
          "type": "address"
        }
      ],
      "stateMutability": "view",
      "type": "function"
    },
    {
      "inputs": [
        {
          "internalType": "address",
          "name": "owner",
          "type": "address"
        },
        {
          "internalType": "address",
          "name": "operator",
          "type": "address"
        }
      ],
      "name": "isApprovedForAll",
      "outputs": [
        {
          "internalType": "bool",
          "name": "",
          "type": "bool"
        }
      ],
      "stateMutability": "view",
      "type": "function"
    },
    {
      "inputs": [
        {
          "internalType": "string",
          "name": "meetingId",
          "type": "string"
        },
        {
          "internalType": "string",
          "name": "ipfsCid",
          "type": "string"
        }
      ],
      "name": "mint",
      "outputs": [
        {
          "internalType": "uint256",
          "name": "tokenId",
          "type": "uint256"
        }
      ],
      "stateMutability": "nonpayable",
      "type": "function"
    },
    {
      "inputs": [
        {
          "internalType": "string",
          "name": "",
          "type": "string"
        }
      ],
      "name": "minted",
      "outputs": [
        {
          "internalType": "bool",
          "name": "",
          "type": "bool"
        }
      ],
      "stateMutability": "view",
      "type": "function"
    },
    {
      "inputs": [],
      "name": "name",
      "outputs": [
        {
          "internalType": "string",
          "name": "",
          "type": "string"
        }
      ],
      "stateMutability": "view",
      "type": "function"
    },
    {
      "inputs": [
        {
          "internalType": "uint256",
          "name": "tokenId",
          "type": "uint256"
        }
      ],
      "name": "ownerOf",
      "outputs": [
        {
          "internalType": "address",
          "name": "",
          "type": "address"
        }
      ],
      "stateMutability": "view",
      "type": "function"
    },
    {
      "inputs": [],
      "name": "registry",
      "outputs": [
        {
          "internalType": "address",
          "name": "",
          "type": "address"
        }
      ],
      "stateMutability": "view",
      "type": "function"
    },
    {
      "inputs": [
        {
          "internalType": "address",
          "name": "from",
          "type": "address"
        },
        {
          "internalType": "address",
          "name": "to",
          "type": "address"
        },
        {
          "internalType": "uint256",
          "name": "tokenId",
          "type": "uint256"
        }
      ],
      "name": "safeTransferFrom",
      "outputs": [],
      "stateMutability": "nonpayable",
      "type": "function"
    },
    {
      "inputs": [
        {
          "internalType": "address",
          "name": "from",
          "type": "address"
        },
        {
          "internalType": "address",
          "name": "to",
          "type": "address"
        },
        {
          "internalType": "uint256",
          "name": "tokenId",
          "type": "uint256"
        },
        {
          "internalType": "bytes",
          "name": "data",
          "type": "bytes"
        }
      ],
      "name": "safeTransferFrom",
      "outputs": [],
      "stateMutability": "nonpayable",
      "type": "function"
    },
    {
      "inputs": [
        {
          "internalType": "address",
          "name": "operator",
          "type": "address"
        },
        {
          "internalType": "bool",
          "name": "approved",
          "type": "bool"
        }
      ],
      "name": "setApprovalForAll",
      "outputs": [],
      "stateMutability": "nonpayable",
      "type": "function"
    },
    {
      "inputs": [
        {
          "internalType": "bytes4",
          "name": "interfaceId",
          "type": "bytes4"
        }
      ],
      "name": "supportsInterface",
      "outputs": [
        {
          "internalType": "bool",
          "name": "",
          "type": "bool"
        }
      ],
      "stateMutability": "view",
      "type": "function"
    },
    {
      "inputs": [],
      "name": "symbol",
      "outputs": [
        {
          "internalType": "string",
          "name": "",
          "type": "string"
        }
      ],
      "stateMutability": "view",
      "type": "function"
    },
    {
      "inputs": [
        {
          "internalType": "string",
          "name": "",
          "type": "string"
        }
      ],
      "name": "tokenOfMeeting",
      "outputs": [
        {
          "internalType": "uint256",
          "name": "",
          "type": "uint256"
        }
      ],
      "stateMutability": "view",
      "type": "function"
    },
    {
      "inputs": [
        {
          "internalType": "uint256",
          "name": "tokenId",
          "type": "uint256"
        }
      ],
      "name": "tokenURI",
      "outputs": [
        {
          "internalType": "string",
          "name": "",
          "type": "string"
        }
      ],
      "stateMutability": "view",
      "type": "function"
    },
    {
      "inputs": [
        {
          "internalType": "address",
          "name": "from",
          "type": "address"
        },
        {
          "internalType": "address",
          "name": "to",
          "type": "address"
        },
        {
          "internalType": "uint256",
          "name": "tokenId",
          "type": "uint256"
        }
      ],
      "name": "transferFrom",
      "outputs": [],
      "stateMutability": "nonpayable",
      "type": "function"
    }
  ],
  "bytecode": "0x60a060405234801561000f575f5ffd5b50604051611b3f380380611b3f83398101604081905261002e916100a5565b60405180604001604052806012815260200171115d1a195c961359595d08149958d95a5c1d60721b8152506040518060400160405280600481526020016322aa2c2960e11b815250815f9081610084919061016a565b506001610091828261016a565b5050506001600160a01b0316608052610224565b5f602082840312156100b5575f5ffd5b81516001600160a01b03811681146100cb575f5ffd5b9392505050565b634e487b7160e01b5f52604160045260245ffd5b600181811c908216806100fa57607f821691505b60208210810361011857634e487b7160e01b5f52602260045260245ffd5b50919050565b601f82111561016557805f5260205f20601f840160051c810160208510156101435750805b601f840160051c820191505b81811015610162575f815560010161014f565b50505b505050565b81516001600160401b03811115610183576101836100d2565b6101978161019184546100e6565b8461011e565b6020601f8211600181146101c9575f83156101b25750848201515b5f19600385901b1c1916600184901b178455610162565b5f84815260208120601f198516915b828110156101f857878501518255602094850194600190920191016101d8565b508482101561021557868401515f19600387901b60f8161c191681555b50505050600190811b01905550565b6080516118fc6102435f395f818161023f015261052f01526118fc5ff3fe608060405234801561000f575f5ffd5b5060043610610106575f3560e01c80636a247daa1161009e57806395d89b411161006e57806395d89b4114610274578063a22cb4651461027c578063b88d4fde1461028f578063c87b56dd146102a2578063e985e9c5146102b5575f5ffd5b80636a247daa146101f957806370a08231146102275780637b1039991461023a5780638aa0fdad14610261575f5ffd5b8063149170fb116100d9578063149170fb1461018757806323b872dd146101c057806342842e0e146101d35780636352211e146101e6575f5ffd5b806301ffc9a71461010a57806306fdde0314610132578063081812fc14610147578063095ea7b314610172575b5f5ffd5b61011d610118366004611189565b6102c8565b60405190151581526020015b60405180910390f35b61013a6102d8565b60405161012991906111d2565b61015a6101553660046111e4565b610367565b6040516001600160a01b039091168152602001610129565b61018561018036600461120f565b61038e565b005b6101b2610195366004611306565b805160208183018101805160098252928201919093012091525481565b604051908152602001610129565b6101856101ce36600461134a565b61039d565b6101856101e136600461134a565b61042b565b61015a6101f43660046111e4565b61044a565b61011d610207366004611306565b805160208183018101805160088252928201919093012091525460ff1681565b6101b2610235366004611388565b610454565b61015a7f000000000000000000000000000000000000000000000000000000000000000081565b6101b261026f3660046113e7565b610499565b61013a6107ce565b61018561028a366004611451565b6107dd565b61018561029d36600461148c565b6107e8565b61013a6102b03660046111e4565b610800565b61011d6102c3366004611506565b61080b565b5f6102d282610838565b92915050565b60605f80546102e690611532565b80601f016020809104026020016040519081016040528092919081815260200182805461031290611532565b801561035d5780601f106103345761010080835404028352916020019161035d565b820191905f5260205f20905b81548152906001019060200180831161034057829003601f168201915b5050505050905090565b5f6103718261085c565b505f828152600460205260409020546001600160a01b03166102d2565b610399828233610894565b5050565b6001600160a01b0382166103cb57604051633250574960e11b81525f60048201526024015b60405180910390fd5b5f6103d78383336108a1565b9050836001600160a01b0316816001600160a01b031614610425576040516364283d7b60e01b81526001600160a01b03808616600483015260248201849052821660448201526064016103c2565b50505050565b61044583838360405180602001604052805f8152506107e8565b505050565b5f6102d28261085c565b5f6001600160a01b03821661047e576040516322718ad960e21b81525f60048201526024016103c2565b506001600160a01b03165f9081526003602052604090205490565b5f600885856040516104ac92919061156a565b9081526040519081900360200190205460ff16156105175760405162461bcd60e51b815260206004820152602260248201527f4d656574696e674e46543a207265636569707420616c7265616479206d696e74604482015261195960f21b60648201526084016103c2565b604051625e85c960e71b81525f906001600160a01b037f00000000000000000000000000000000000000000000000000000000000000001690632f42e4809061056690899089906004016115a1565b5f60405180830381865afa158015610580573d5f5f3e3d5ffd5b505050506040513d5f823e601f3d908101601f191682016040526105a79190810190611611565b905080604001515f036106075760405162461bcd60e51b815260206004820152602260248201527f4d656574696e674e46543a206d656574696e6720646f6573206e6f74206578696044820152611cdd60f21b60648201526084016103c2565b80606001515f036106645760405162461bcd60e51b815260206004820152602160248201527f4d656574696e674e46543a206d656574696e67206e6f7420656e6465642079656044820152601d60fa1b60648201526084016103c2565b60208101516001600160a01b031633146106cf5760405162461bcd60e51b815260206004820152602660248201527f4d656574696e674e46543a206f6e6c7920686f73742063616e206d696e7420726044820152651958d95a5c1d60d21b60648201526084016103c2565b60078054905f6106de836116de565b9190505591506001600887876040516106f892919061156a565b908152604051908190036020018120805492151560ff1990931692909217909155829060099061072b908990899061156a565b908152604051908190036020019020556107453383610993565b61077082858560405160200161075c929190611702565b6040516020818303038152906040526109ac565b6040513390610782908890889061156a565b60405180910390207f8cbb34d43c106f09dee504d816318c04f2c41033c38900d3f36f385d18357cc78487876040516107bd93929190611724565b60405180910390a350949350505050565b6060600180546102e690611532565b6103993383836109fb565b6107f384848461039d565b6104253385858585610ac2565b60606102d282610bea565b6001600160a01b039182165f90815260056020908152604080832093909416825291909152205460ff1690565b5f6001600160e01b03198216632483248360e11b14806102d257506102d282610c6b565b5f818152600260205260408120546001600160a01b0316806102d257604051637e27328960e01b8152600481018490526024016103c2565b6104458383836001610cba565b5f828152600260205260408120546001600160a01b03908116908316156108cd576108cd818486610dbe565b6001600160a01b03811615610907576108e85f855f5f610cba565b6001600160a01b0381165f90815260036020526040902080545f190190555b6001600160a01b03851615610935576001600160a01b0385165f908152600360205260409020805460010190555b5f8481526002602052604080822080546001600160a01b0319166001600160a01b0389811691821790925591518793918516917fddf252ad1be2c89b69c2b068fc378daa952ba7f163c4a11628f55a4df523b3ef91a4949350505050565b610399828260405180602001604052805f815250610e22565b5f8281526006602052604090206109c3828261178a565b506040518281527ff8e1a15aba9398e019f0b49df1a4fde98ee17ae345cb5f6b5e2c27f5033e8ce79060200160405180910390a15050565b6001600160a01b038316610a245760405163a9fbf51f60e01b81525f60048201526024016103c2565b6001600160a01b038216610a5657604051630b61174360e31b81526001600160a01b03831660048201526024016103c2565b6001600160a01b038381165f81815260056020908152604080832094871680845294825291829020805460ff191686151590811790915591519182527f17307eab39ab6107e8899845ad3d59bd9653f200f220920489ca2b5937696c31910160405180910390a3505050565b6001600160a01b0383163b15610be357604051630a85bd0160e11b81526001600160a01b0384169063150b7a0290610b04908890889087908790600401611844565b6020604051808303815f875af1925050508015610b3e575060408051601f3d908101601f19168201909252610b3b91810190611880565b60015b610ba5573d808015610b6b576040519150601f19603f3d011682016040523d82523d5f602084013e610b70565b606091505b5080515f03610b9d57604051633250574960e11b81526001600160a01b03851660048201526024016103c2565b805160208201fd5b6001600160e01b03198116630a85bd0160e11b14610be157604051633250574960e11b81526001600160a01b03851660048201526024016103c2565b505b5050505050565b6060610bf58261085c565b505f610c0b60408051602081019091525f815290565b90505f610c1784610e39565b905081515f03610c28579392505050565b805115610c5a578181604051602001610c429291906118b2565b60405160208183030381529060405292505050919050565b610c6384610ed8565b949350505050565b5f6001600160e01b031982166380ac58cd60e01b1480610c9b57506001600160e01b03198216635b5e139f60e01b145b806102d257506301ffc9a760e01b6001600160e01b03198316146102d2565b8080610cce57506001600160a01b03821615155b15610d8f575f610cdd8461085c565b90506001600160a01b03831615801590610d095750826001600160a01b0316816001600160a01b031614155b8015610d1c5750610d1a818461080b565b155b15610d455760405163a9fbf51f60e01b81526001600160a01b03841660048201526024016103c2565b8115610d8d5783856001600160a01b0316826001600160a01b03167f8c5be1e5ebec7d5bd14f71427d1e84f3dd0314c0f7b2291e5b200ac8c7c3b92560405160405180910390a45b505b50505f90815260046020526040902080546001600160a01b0319166001600160a01b0392909216919091179055565b610dc9838383610f49565b610445576001600160a01b038316610df757604051637e27328960e01b8152600481018290526024016103c2565b60405163177e802f60e01b81526001600160a01b0383166004820152602481018290526044016103c2565b610e2c8383610faa565b610445335f858585610ac2565b5f818152600660205260409020805460609190610e5590611532565b80601f0160208091040260200160405190810160405280929190818152602001828054610e8190611532565b8015610ecc5780601f10610ea357610100808354040283529160200191610ecc565b820191905f5260205f20905b815481529060010190602001808311610eaf57829003601f168201915b50505050509050919050565b6060610ee38261085c565b505f610ef960408051602081019091525f815290565b90505f815111610f175760405180602001604052805f815250610f42565b80610f218461100b565b604051602001610f329291906118b2565b6040516020818303038152906040525b9392505050565b5f6001600160a01b03831615801590610c635750826001600160a01b0316846001600160a01b03161480610f825750610f82848461080b565b80610c635750505f908152600460205260409020546001600160a01b03908116911614919050565b6001600160a01b038216610fd357604051633250574960e11b81525f60048201526024016103c2565b5f610fdf83835f6108a1565b90506001600160a01b03811615610445576040516339e3563760e11b81525f60048201526024016103c2565b60605f6110178361109a565b60010190505f816001600160401b0381111561103557611035611239565b6040519080825280601f01601f19166020018201604052801561105f576020820181803683370190505b5090508181016020015b5f19016f181899199a1a9b1b9c1cb0b131b232b360811b600a86061a8153600a850494508461106957509392505050565b5f8072184f03e93ff9f4daa797ed6e38ed64bf6a1f0160401b83106110d85772184f03e93ff9f4daa797ed6e38ed64bf6a1f0160401b830492506040015b6d04ee2d6d415b85acef81000000008310611104576d04ee2d6d415b85acef8100000000830492506020015b662386f26fc10000831061112257662386f26fc10000830492506010015b6305f5e100831061113a576305f5e100830492506008015b612710831061114e57612710830492506004015b60648310611160576064830492506002015b600a83106102d25760010192915050565b6001600160e01b031981168114611186575f5ffd5b50565b5f60208284031215611199575f5ffd5b8135610f4281611171565b5f81518084528060208401602086015e5f602082860101526020601f19601f83011685010191505092915050565b602081525f610f4260208301846111a4565b5f602082840312156111f4575f5ffd5b5035919050565b6001600160a01b0381168114611186575f5ffd5b5f5f60408385031215611220575f5ffd5b823561122b816111fb565b946020939093013593505050565b634e487b7160e01b5f52604160045260245ffd5b60405160e081016001600160401b038111828210171561126f5761126f611239565b60405290565b604051601f8201601f191681016001600160401b038111828210171561129d5761129d611239565b604052919050565b5f6001600160401b038211156112bd576112bd611239565b50601f01601f191660200190565b5f6112dd6112d8846112a5565b611275565b90508281528383830111156112f0575f5ffd5b828260208301375f602084830101529392505050565b5f60208284031215611316575f5ffd5b81356001600160401b0381111561132b575f5ffd5b8201601f8101841361133b575f5ffd5b610c63848235602084016112cb565b5f5f5f6060848603121561135c575f5ffd5b8335611367816111fb565b92506020840135611377816111fb565b929592945050506040919091013590565b5f60208284031215611398575f5ffd5b8135610f42816111fb565b5f5f83601f8401126113b3575f5ffd5b5081356001600160401b038111156113c9575f5ffd5b6020830191508360208285010111156113e0575f5ffd5b9250929050565b5f5f5f5f604085870312156113fa575f5ffd5b84356001600160401b0381111561140f575f5ffd5b61141b878288016113a3565b90955093505060208501356001600160401b03811115611439575f5ffd5b611445878288016113a3565b95989497509550505050565b5f5f60408385031215611462575f5ffd5b823561146d816111fb565b915060208301358015158114611481575f5ffd5b809150509250929050565b5f5f5f5f6080858703121561149f575f5ffd5b84356114aa816111fb565b935060208501356114ba816111fb565b92506040850135915060608501356001600160401b038111156114db575f5ffd5b8501601f810187136114eb575f5ffd5b6114fa878235602084016112cb565b91505092959194509250565b5f5f60408385031215611517575f5ffd5b8235611522816111fb565b91506020830135611481816111fb565b600181811c9082168061154657607f821691505b60208210810361156457634e487b7160e01b5f52602260045260245ffd5b50919050565b818382375f9101908152919050565b81835281816020850137505f828201602090810191909152601f909101601f19169091010190565b602081525f610c63602083018486611579565b5f82601f8301126115c3575f5ffd5b81516115d16112d8826112a5565b8181528460208386010111156115e5575f5ffd5b8160208501602083015e5f918101602001919091529392505050565b805161160c816111fb565b919050565b5f60208284031215611621575f5ffd5b81516001600160401b03811115611636575f5ffd5b820160e08185031215611647575f5ffd5b61164f61124d565b81516001600160401b03811115611664575f5ffd5b611670868285016115b4565b82525061167f60208301611601565b602082015260408281015190820152606080830151908201526080808301519082015260a0808301519082015260c08201516001600160401b038111156116c4575f5ffd5b6116d0868285016115b4565b60c083015250949350505050565b5f600182016116fb57634e487b7160e01b5f52601160045260245ffd5b5060010190565b66697066733a2f2f60c81b8152818360078301375f9101600701908152919050565b838152604060208201525f61173d604083018486611579565b95945050505050565b601f82111561044557805f5260205f20601f840160051c8101602085101561176b5750805b601f840160051c820191505b81811015610be3575f8155600101611777565b81516001600160401b038111156117a3576117a3611239565b6117b7816117b18454611532565b84611746565b6020601f8211600181146117e9575f83156117d25750848201515b5f19600385901b1c1916600184901b178455610be3565b5f84815260208120601f198516915b8281101561181857878501518255602094850194600190920191016117f8565b508482101561183557868401515f19600387901b60f8161c191681555b50505050600190811b01905550565b6001600160a01b03858116825284166020820152604081018390526080606082018190525f90611876908301846111a4565b9695505050505050565b5f60208284031215611890575f5ffd5b8151610f4281611171565b5f81518060208401855e5f93019283525090919050565b5f610c636118c0838661189b565b8461189b56fea2646970667358221220c790310417bd6d6cce3ff3280eb9ee6ca02fe001af28f08a03ec5a84878e6dfb64736f6c634300081c0033",
  "linkReferences": {},
  "deployedLinkReferences": {}
}